{
  "_format": "hh-sol-artifact-1",
  "contractName": "MarketPlace",
  "sourceName": "contracts/MarketPlace.sol",
  "abi": [
    {
      "inputs": [],
      "stateMutability": "nonpayable",
      "type": "constructor"
    },
    {
      "inputs": [],
      "name": "AccountExists",
      "type": "error"
    },
    {
      "inputs": [],
      "name": "ListingNotFound",
      "type": "error"
    },
    {
      "inputs": [],
      "name": "NoLocationAdded",
      "type": "error"
    },
    {
      "inputs": [],
      "name": "NoNameAdded",
      "type": "error"
    },
    {
      "inputs": [],
      "name": "NotListingSeller",
      "type": "error"
    },
    {
      "inputs": [],
      "name": "OnlyOwner",
      "type": "error"
    },
    {
      "inputs": [],
      "name": "OutOfStock",
      "type": "error"
    },
    {
      "inputs": [],
      "name": "ZeroAddressDetected",
      "type": "error"
    },
    {
      "anonymous": false,
      "inputs": [
        {
          "indexed": true,
          "internalType": "uint256",
          "name": "id",
          "type": "uint256"
        },
        {
          "indexed": true,
          "internalType": "string",
          "name": "name",
          "type": "string"
        },
        {
          "indexed": false,
          "internalType": "string",
          "name": "description",
          "type": "string"
        },
        {
          "indexed": false,
          "internalType": "uint256",
          "name": "price",
          "type": "uint256"
        },
        {
          "indexed": false,
          "internalType": "uint256",
          "name": "quantity",
          "type": "uint256"
        },
        {
          "indexed": true,
          "internalType": "address",
          "name": "seller",
          "type": "address"
        }
      ],
      "name": "ListingAdded",
      "type": "event"
    },
    {
      "anonymous": false,
      "inputs": [
        {
          "indexed": true,
          "internalType": "uint256",
          "name": "_id",
          "type": "uint256"
        },
        {
          "indexed": true,
          "internalType": "address",
          "name": "seller",
          "type": "address"
        }
      ],
      "name": "ListingRemoved",
      "type": "event"
    },
    {
      "anonymous": false,
      "inputs": [
        {
          "indexed": true,
          "internalType": "uint256",
          "name": "id",
          "type": "uint256"
        },
        {
          "indexed": false,
          "internalType": "string",
          "name": "name",
          "type": "string"
        },
        {
          "indexed": false,
          "internalType": "string",
          "name": "description",
          "type": "string"
        },
        {
          "indexed": false,
          "internalType": "uint256",
          "name": "price",
          "type": "uint256"
        },
        {
          "indexed": false,
          "internalType": "uint256",
          "name": "quantity",
          "type": "uint256"
        }
      ],
      "name": "ListingUpdated",
      "type": "event"
    },
    {
      "anonymous": false,
      "inputs": [
        {
          "indexed": true,
          "internalType": "address",
          "name": "farmer",
          "type": "address"
        }
      ],
      "name": "UserRegistered",
      "type": "event"
    },
    {
      "inputs": [],
      "name": "OWNER",
      "outputs": [
        {
          "internalType": "address",
          "name": "",
          "type": "address"
        }
      ],
      "stateMutability": "view",
      "type": "function"
    },
    {
      "inputs": [
        {
          "internalType": "string",
          "name": "_name",
          "type": "string"
        },
        {
          "internalType": "string",
          "name": "_description",
          "type": "string"
        },
        {
          "internalType": "uint256",
          "name": "_price",
          "type": "uint256"
        },
        {
          "internalType": "uint256",
          "name": "_quantity",
          "type": "uint256"
        },
        {
          "internalType": "bool",
          "name": "_allowsInstallment",
          "type": "bool"
        }
      ],
      "name": "addListing",
      "outputs": [],
      "stateMutability": "nonpayable",
      "type": "function"
    },
    {
      "inputs": [
        {
          "internalType": "uint256",
          "name": "",
          "type": "uint256"
        }
      ],
      "name": "allListings",
      "outputs": [
        {
          "internalType": "uint256",
          "name": "id",
          "type": "uint256"
        },
        {
          "internalType": "string",
          "name": "name",
          "type": "string"
        },
        {
          "internalType": "string",
          "name": "description",
          "type": "string"
        },
        {
          "internalType": "uint256",
          "name": "price",
          "type": "uint256"
        },
        {
          "internalType": "uint256",
          "name": "quantity",
          "type": "uint256"
        },
        {
          "internalType": "address",
          "name": "seller",
          "type": "address"
        },
        {
          "internalType": "bool",
          "name": "allowsInstallment",
          "type": "bool"
        }
      ],
      "stateMutability": "view",
      "type": "function"
    },
    {
      "inputs": [
        {
          "internalType": "address",
          "name": "",
          "type": "address"
        }
      ],
      "name": "buyers",
      "outputs": [
        {
          "internalType": "address",
          "name": "account",
          "type": "address"
        },
        {
          "internalType": "string",
          "name": "name",
          "type": "string"
        },
        {
          "internalType": "string",
          "name": "location",
          "type": "string"
        },
        {
          "internalType": "enum MarketPlace.Role",
          "name": "role",
          "type": "uint8"
        }
      ],
      "stateMutability": "view",
      "type": "function"
    },
    {
      "inputs": [
        {
          "internalType": "address",
          "name": "",
          "type": "address"
        }
      ],
      "name": "dispatchers",
      "outputs": [
        {
          "internalType": "address",
          "name": "account",
          "type": "address"
        },
        {
          "internalType": "string",
          "name": "name",
          "type": "string"
        },
        {
          "internalType": "string",
          "name": "location",
          "type": "string"
        },
        {
          "internalType": "enum MarketPlace.Role",
          "name": "role",
          "type": "uint8"
        }
      ],
      "stateMutability": "view",
      "type": "function"
    },
    {
      "inputs": [
        {
          "internalType": "address",
          "name": "",
          "type": "address"
        }
      ],
      "name": "farmers",
      "outputs": [
        {
          "internalType": "address",
          "name": "account",
          "type": "address"
        },
        {
          "internalType": "string",
          "name": "name",
          "type": "string"
        },
        {
          "internalType": "string",
          "name": "location",
          "type": "string"
        },
        {
          "internalType": "enum MarketPlace.Role",
          "name": "role",
          "type": "uint8"
        }
      ],
      "stateMutability": "view",
      "type": "function"
    },
    {
      "inputs": [
        {
          "internalType": "address",
          "name": "",
          "type": "address"
        },
        {
          "internalType": "uint256",
          "name": "",
          "type": "uint256"
        }
      ],
      "name": "farmersListings",
      "outputs": [
        {
          "internalType": "uint256",
          "name": "",
          "type": "uint256"
        }
      ],
      "stateMutability": "view",
      "type": "function"
    },
    {
      "inputs": [],
      "name": "getAllListings",
      "outputs": [
        {
          "components": [
            {
              "internalType": "uint256",
              "name": "id",
              "type": "uint256"
            },
            {
              "internalType": "string",
              "name": "name",
              "type": "string"
            },
            {
              "internalType": "string",
              "name": "description",
              "type": "string"
            },
            {
              "internalType": "uint256",
              "name": "price",
              "type": "uint256"
            },
            {
              "internalType": "uint256",
              "name": "quantity",
              "type": "uint256"
            },
            {
              "internalType": "address",
              "name": "seller",
              "type": "address"
            },
            {
              "internalType": "bool",
              "name": "allowsInstallment",
              "type": "bool"
            }
          ],
          "internalType": "struct MarketPlace.Listing[]",
          "name": "",
          "type": "tuple[]"
        }
      ],
      "stateMutability": "view",
      "type": "function"
    },
    {
      "inputs": [
        {
          "internalType": "address",
          "name": "_farmer",
          "type": "address"
        }
      ],
      "name": "getFarmerListings",
      "outputs": [
        {
          "internalType": "uint256[]",
          "name": "",
          "type": "uint256[]"
        }
      ],
      "stateMutability": "view",
      "type": "function"
    },
    {
      "inputs": [
        {
          "internalType": "uint256",
          "name": "_id",
          "type": "uint256"
        }
      ],
      "name": "getListing",
      "outputs": [
        {
          "components": [
            {
              "internalType": "uint256",
              "name": "id",
              "type": "uint256"
            },
            {
              "internalType": "string",
              "name": "name",
              "type": "string"
            },
            {
              "internalType": "string",
              "name": "description",
              "type": "string"
            },
            {
              "internalType": "uint256",
              "name": "price",
              "type": "uint256"
            },
            {
              "internalType": "uint256",
              "name": "quantity",
              "type": "uint256"
            },
            {
              "internalType": "address",
              "name": "seller",
              "type": "address"
            },
            {
              "internalType": "bool",
              "name": "allowsInstallment",
              "type": "bool"
            }
          ],
          "internalType": "struct MarketPlace.Listing",
          "name": "listing",
          "type": "tuple"
        }
      ],
      "stateMutability": "view",
      "type": "function"
    },
    {
      "inputs": [
        {
          "internalType": "uint256",
          "name": "_listingId",
          "type": "uint256"
        },
        {
          "internalType": "uint256",
          "name": "_reduction",
          "type": "uint256"
        }
      ],
      "name": "reduceQuantity",
      "outputs": [],
      "stateMutability": "nonpayable",
      "type": "function"
    },
    {
      "inputs": [
        {
          "internalType": "address",
          "name": "_account",
          "type": "address"
        },
        {
          "internalType": "string",
          "name": "_name",
          "type": "string"
        },
        {
          "internalType": "string",
          "name": "_location",
          "type": "string"
        },
        {
          "internalType": "enum MarketPlace.Role",
          "name": "_role",
          "type": "uint8"
        }
      ],
      "name": "registerUser",
      "outputs": [],
      "stateMutability": "nonpayable",
      "type": "function"
    },
    {
      "inputs": [
        {
          "internalType": "uint256",
          "name": "_id",
          "type": "uint256"
        }
      ],
      "name": "removeListing",
      "outputs": [],
      "stateMutability": "nonpayable",
      "type": "function"
    },
    {
      "inputs": [
        {
          "internalType": "uint256",
          "name": "_id",
          "type": "uint256"
        },
        {
          "internalType": "string",
          "name": "_name",
          "type": "string"
        },
        {
          "internalType": "string",
          "name": "_description",
          "type": "string"
        },
        {
          "internalType": "uint256",
          "name": "_price",
          "type": "uint256"
        },
        {
          "internalType": "uint256",
          "name": "_quantity",
          "type": "uint256"
        }
      ],
      "name": "updateListing",
      "outputs": [],
      "stateMutability": "nonpayable",
      "type": "function"
    },
    {
      "inputs": [
        {
          "internalType": "string",
          "name": "_location",
          "type": "string"
        },
        {
          "internalType": "enum MarketPlace.Role",
          "name": "_role",
          "type": "uint8"
        }
      ],
      "name": "updateUserLocation",
      "outputs": [],
      "stateMutability": "nonpayable",
      "type": "function"
    }
  ],
  "bytecode": "0x60a060405234801561001057600080fd5b503373ffffffffffffffffffffffffffffffffffffffff1660808173ffffffffffffffffffffffffffffffffffffffff1681525050608051613350610060600039600061093201526133506000f3fe608060405234801561001057600080fd5b50600436106100f55760003560e01c8063479ad4c311610097578063ae73ccec11610066578063ae73ccec146102b4578063e4fd268d146102d2578063ef6bf69714610305578063f043ad1c14610321576100f5565b8063479ad4c31461022d5780636f8826ed14610249578063928b93651461026557806397a993aa14610281576100f5565b8063117803e3116100d3578063117803e31461017c5780631df913211461019a5780633a071479146101ca578063401b2168146101fa576100f5565b80630a99343d146100fa5780630eeaa2ef14610116578063107a274a1461014c575b600080fd5b610114600480360381019061010f9190612321565b61033d565b005b610130600480360381019061012b91906123b3565b610535565b60405161014397969594939291906124ca565b60405180910390f35b610166600480360381019061016191906123b3565b6106b4565b6040516101739190612661565b60405180910390f35b610184610930565b6040516101919190612683565b60405180910390f35b6101b460048036038101906101af91906126ca565b610954565b6040516101c191906127a6565b60405180910390f35b6101e460048036038101906101df91906127c8565b6109eb565b6040516101f19190612808565b60405180910390f35b610214600480360381019061020f91906126ca565b610a1c565b604051610224949392919061289a565b60405180910390f35b610247600480360381019061024291906123b3565b610b89565b005b610263600480360381019061025e91906128ed565b610e9b565b005b61027f600480360381019061027a91906129b8565b611446565b005b61029b600480360381019061029691906126ca565b61180e565b6040516102ab949392919061289a565b60405180910390f35b6102bc61197b565b6040516102c99190612bd0565b60405180910390f35b6102ec60048036038101906102e791906126ca565b611c67565b6040516102fc949392919061289a565b60405180910390f35b61031f600480360381019061031a9190612bf2565b611dd4565b005b61033b60048036038101906103369190612c32565b611e46565b005b600073ffffffffffffffffffffffffffffffffffffffff163373ffffffffffffffffffffffffffffffffffffffff16036103a3576040517f510fbaea00000000000000000000000000000000000000000000000000000000815260040160405180910390fd5b60008251036103de576040517f0bb2d55400000000000000000000000000000000000000000000000000000000815260040160405180910390fd5b6000600260038111156103f4576103f3612823565b5b82600381111561040757610406612823565b5b0361045257600460003373ffffffffffffffffffffffffffffffffffffffff1673ffffffffffffffffffffffffffffffffffffffff1681526020019081526020016000209050610494565b600360003373ffffffffffffffffffffffffffffffffffffffff1673ffffffffffffffffffffffffffffffffffffffff16815260200190815260200160002090505b600073ffffffffffffffffffffffffffffffffffffffff168160000160009054906101000a900473ffffffffffffffffffffffffffffffffffffffff1673ffffffffffffffffffffffffffffffffffffffff160361051e576040517f510fbaea00000000000000000000000000000000000000000000000000000000815260040160405180910390fd5b8281600201908161052f9190612ef1565b50505050565b600160205280600052604060002060009150905080600001549080600101805461055e90612d14565b80601f016020809104026020016040519081016040528092919081815260200182805461058a90612d14565b80156105d75780601f106105ac576101008083540402835291602001916105d7565b820191906000526020600020905b8154815290600101906020018083116105ba57829003601f168201915b5050505050908060020180546105ec90612d14565b80601f016020809104026020016040519081016040528092919081815260200182805461061890612d14565b80156106655780601f1061063a57610100808354040283529160200191610665565b820191906000526020600020905b81548152906001019060200180831161064857829003601f168201915b5050505050908060030154908060040154908060050160009054906101000a900473ffffffffffffffffffffffffffffffffffffffff16908060050160149054906101000a900460ff16905087565b6106bc6120f0565b600073ffffffffffffffffffffffffffffffffffffffff166001600084815260200190815260200160002060050160009054906101000a900473ffffffffffffffffffffffffffffffffffffffff1673ffffffffffffffffffffffffffffffffffffffff1603610758576040517f7e43e63800000000000000000000000000000000000000000000000000000000815260040160405180910390fd5b600160008381526020019081526020016000206040518060e00160405290816000820154815260200160018201805461079090612d14565b80601f01602080910402602001604051908101604052809291908181526020018280546107bc90612d14565b80156108095780601f106107de57610100808354040283529160200191610809565b820191906000526020600020905b8154815290600101906020018083116107ec57829003601f168201915b5050505050815260200160028201805461082290612d14565b80601f016020809104026020016040519081016040528092919081815260200182805461084e90612d14565b801561089b5780601f106108705761010080835404028352916020019161089b565b820191906000526020600020905b81548152906001019060200180831161087e57829003601f168201915b5050505050815260200160038201548152602001600482015481526020016005820160009054906101000a900473ffffffffffffffffffffffffffffffffffffffff1673ffffffffffffffffffffffffffffffffffffffff1673ffffffffffffffffffffffffffffffffffffffff1681526020016005820160149054906101000a900460ff1615151515815250509050919050565b7f000000000000000000000000000000000000000000000000000000000000000081565b6060600260008373ffffffffffffffffffffffffffffffffffffffff1673ffffffffffffffffffffffffffffffffffffffff1681526020019081526020016000208054806020026020016040519081016040528092919081815260200182805480156109df57602002820191906000526020600020905b8154815260200190600101908083116109cb575b50505050509050919050565b60026020528160005260406000208181548110610a0757600080fd5b90600052602060002001600091509150505481565b60036020528060005260406000206000915090508060000160009054906101000a900473ffffffffffffffffffffffffffffffffffffffff1690806001018054610a6590612d14565b80601f0160208091040260200160405190810160405280929190818152602001828054610a9190612d14565b8015610ade5780601f10610ab357610100808354040283529160200191610ade565b820191906000526020600020905b815481529060010190602001808311610ac157829003601f168201915b505050505090806002018054610af390612d14565b80601f0160208091040260200160405190810160405280929190818152602001828054610b1f90612d14565b8015610b6c5780601f10610b4157610100808354040283529160200191610b6c565b820191906000526020600020905b815481529060010190602001808311610b4f57829003601f168201915b5050505050908060030160009054906101000a900460ff16905084565b6000600160008381526020019081526020016000209050600073ffffffffffffffffffffffffffffffffffffffff166001600084815260200190815260200160002060050160009054906101000a900473ffffffffffffffffffffffffffffffffffffffff1673ffffffffffffffffffffffffffffffffffffffff1603610c3c576040517f7e43e63800000000000000000000000000000000000000000000000000000000815260040160405180910390fd5b3373ffffffffffffffffffffffffffffffffffffffff168160050160009054906101000a900473ffffffffffffffffffffffffffffffffffffffff1673ffffffffffffffffffffffffffffffffffffffff1603610e655760016000838152602001908152602001600020600080820160009055600182016000610cbf9190612145565b600282016000610ccf9190612145565b600382016000905560048201600090556005820160006101000a81549073ffffffffffffffffffffffffffffffffffffffff02191690556005820160146101000a81549060ff021916905550506000600260003373ffffffffffffffffffffffffffffffffffffffff1673ffffffffffffffffffffffffffffffffffffffff168152602001908152602001600020905060005b8180549050811015610e1a5783828281548110610d8257610d81612fc3565b5b906000526020600020015403610e0d578160018380549050610da49190613021565b81548110610db557610db4612fc3565b5b9060005260206000200154828281548110610dd357610dd2612fc3565b5b906000526020600020018190555081805480610df257610df1613055565b5b60019003818190600052602060002001600090559055610e1a565b8080600101915050610d62565b503373ffffffffffffffffffffffffffffffffffffffff16837f58b0852506006c4be6c7ae72afcd195d9e64d7f5d8947905e914b778e47b7cf360405160405180910390a350610e97565b6040517f98e19bd400000000000000000000000000000000000000000000000000000000815260040160405180910390fd5b5050565b600073ffffffffffffffffffffffffffffffffffffffff163373ffffffffffffffffffffffffffffffffffffffff1603610f01576040517f510fbaea00000000000000000000000000000000000000000000000000000000815260040160405180910390fd5b600073ffffffffffffffffffffffffffffffffffffffff168473ffffffffffffffffffffffffffffffffffffffff1603610f67576040517f510fbaea00000000000000000000000000000000000000000000000000000000815260040160405180910390fd5b6000835103610fa2576040517f4b6d8b3900000000000000000000000000000000000000000000000000000000815260040160405180910390fd5b6000825103610fdd576040517f0bb2d55400000000000000000000000000000000000000000000000000000000815260040160405180910390fd5b60016003811115610ff157610ff0612823565b5b81600381111561100457611003612823565b5b0361120557600073ffffffffffffffffffffffffffffffffffffffff16600360008673ffffffffffffffffffffffffffffffffffffffff1673ffffffffffffffffffffffffffffffffffffffff16815260200190815260200160002060000160009054906101000a900473ffffffffffffffffffffffffffffffffffffffff1673ffffffffffffffffffffffffffffffffffffffff16146110d1576040517fc22f9f2c00000000000000000000000000000000000000000000000000000000815260040160405180910390fd5b60405180608001604052808573ffffffffffffffffffffffffffffffffffffffff1681526020018481526020018381526020016001600381111561111857611117612823565b5b815250600360008673ffffffffffffffffffffffffffffffffffffffff1673ffffffffffffffffffffffffffffffffffffffff16815260200190815260200160002060008201518160000160006101000a81548173ffffffffffffffffffffffffffffffffffffffff021916908373ffffffffffffffffffffffffffffffffffffffff16021790555060208201518160010190816111b69190612ef1565b5060408201518160020190816111cc9190612ef1565b5060608201518160030160006101000a81548160ff021916908360038111156111f8576111f7612823565b5b02179055509050506113fd565b600073ffffffffffffffffffffffffffffffffffffffff16600460008673ffffffffffffffffffffffffffffffffffffffff1673ffffffffffffffffffffffffffffffffffffffff16815260200190815260200160002060000160009054906101000a900473ffffffffffffffffffffffffffffffffffffffff1673ffffffffffffffffffffffffffffffffffffffff16146112cd576040517fc22f9f2c00000000000000000000000000000000000000000000000000000000815260040160405180910390fd5b60405180608001604052808573ffffffffffffffffffffffffffffffffffffffff1681526020018481526020018381526020016002600381111561131457611313612823565b5b815250600460008673ffffffffffffffffffffffffffffffffffffffff1673ffffffffffffffffffffffffffffffffffffffff16815260200190815260200160002060008201518160000160006101000a81548173ffffffffffffffffffffffffffffffffffffffff021916908373ffffffffffffffffffffffffffffffffffffffff16021790555060208201518160010190816113b29190612ef1565b5060408201518160020190816113c89190612ef1565b5060608201518160030160006101000a81548160ff021916908360038111156113f4576113f3612823565b5b02179055509050505b8373ffffffffffffffffffffffffffffffffffffffff167f54db7a5cb4735e1aac1f53db512d3390390bb6637bd30ad4bf9fc98667d9b9b960405160405180910390a250505050565b600073ffffffffffffffffffffffffffffffffffffffff16600360003373ffffffffffffffffffffffffffffffffffffffff1673ffffffffffffffffffffffffffffffffffffffff16815260200190815260200160002060000160009054906101000a900473ffffffffffffffffffffffffffffffffffffffff1673ffffffffffffffffffffffffffffffffffffffff1603611517576040517f08c379a000000000000000000000000000000000000000000000000000000000815260040161150e906130d0565b60405180910390fd5b6000831161155a576040517f08c379a00000000000000000000000000000000000000000000000000000000081526004016115519061313c565b60405180910390fd5b6000821161159d576040517f08c379a0000000000000000000000000000000000000000000000000000000008152600401611594906131ce565b60405180910390fd5b600073ffffffffffffffffffffffffffffffffffffffff163373ffffffffffffffffffffffffffffffffffffffff16146117d5576000808154809291906115e3906131ee565b91905055506040518060e0016040528060005481526020018681526020018581526020018481526020018381526020013373ffffffffffffffffffffffffffffffffffffffff16815260200182151581525060016000805481526020019081526020016000206000820151816000015560208201518160010190816116689190612ef1565b50604082015181600201908161167e9190612ef1565b50606082015181600301556080820151816004015560a08201518160050160006101000a81548173ffffffffffffffffffffffffffffffffffffffff021916908373ffffffffffffffffffffffffffffffffffffffff16021790555060c08201518160050160146101000a81548160ff021916908315150217905550905050600260003373ffffffffffffffffffffffffffffffffffffffff1673ffffffffffffffffffffffffffffffffffffffff16815260200190815260200160002060005490806001815401808255809150506001900390600052602060002001600090919091909150553373ffffffffffffffffffffffffffffffffffffffff168560405161178a9190613272565b60405180910390206000547fbb5305aa3e2155114827813567541319a4af28455d4d4e7bc3a5ddad8e8c23918787876040516117c893929190613289565b60405180910390a4611807565b6040517f510fbaea00000000000000000000000000000000000000000000000000000000815260040160405180910390fd5b5050505050565b60046020528060005260406000206000915090508060000160009054906101000a900473ffffffffffffffffffffffffffffffffffffffff169080600101805461185790612d14565b80601f016020809104026020016040519081016040528092919081815260200182805461188390612d14565b80156118d05780601f106118a5576101008083540402835291602001916118d0565b820191906000526020600020905b8154815290600101906020018083116118b357829003601f168201915b5050505050908060020180546118e590612d14565b80601f016020809104026020016040519081016040528092919081815260200182805461191190612d14565b801561195e5780601f106119335761010080835404028352916020019161195e565b820191906000526020600020905b81548152906001019060200180831161194157829003601f168201915b5050505050908060030160009054906101000a900460ff16905084565b60606000805467ffffffffffffffff81111561199a576119996121d1565b5b6040519080825280602002602001820160405280156119d357816020015b6119c06120f0565b8152602001906001900390816119b85790505b5090506000600190505b6000548111611c5f57600073ffffffffffffffffffffffffffffffffffffffff166001600083815260200190815260200160002060050160009054906101000a900473ffffffffffffffffffffffffffffffffffffffff1673ffffffffffffffffffffffffffffffffffffffff1614611c4c57600160008281526020019081526020016000206040518060e001604052908160008201548152602001600182018054611a8890612d14565b80601f0160208091040260200160405190810160405280929190818152602001828054611ab490612d14565b8015611b015780601f10611ad657610100808354040283529160200191611b01565b820191906000526020600020905b815481529060010190602001808311611ae457829003601f168201915b50505050508152602001600282018054611b1a90612d14565b80601f0160208091040260200160405190810160405280929190818152602001828054611b4690612d14565b8015611b935780601f10611b6857610100808354040283529160200191611b93565b820191906000526020600020905b815481529060010190602001808311611b7657829003601f168201915b5050505050815260200160038201548152602001600482015481526020016005820160009054906101000a900473ffffffffffffffffffffffffffffffffffffffff1673ffffffffffffffffffffffffffffffffffffffff1673ffffffffffffffffffffffffffffffffffffffff1681526020016005820160149054906101000a900460ff16151515158152505082600183611c2f9190613021565b81518110611c4057611c3f612fc3565b5b60200260200101819052505b8080611c57906131ee565b9150506119dd565b508091505090565b60056020528060005260406000206000915090508060000160009054906101000a900473ffffffffffffffffffffffffffffffffffffffff1690806001018054611cb090612d14565b80601f0160208091040260200160405190810160405280929190818152602001828054611cdc90612d14565b8015611d295780601f10611cfe57610100808354040283529160200191611d29565b820191906000526020600020905b815481529060010190602001808311611d0c57829003601f168201915b505050505090806002018054611d3e90612d14565b80601f0160208091040260200160405190810160405280929190818152602001828054611d6a90612d14565b8015611db75780601f10611d8c57610100808354040283529160200191611db7565b820191906000526020600020905b815481529060010190602001808311611d9a57829003601f168201915b5050505050908060030160009054906101000a900460ff16905084565b60006001600084815260200190815260200160002090508181600401541015611e29576040517fade1cb4100000000000000000000000000000000000000000000000000000000815260040160405180910390fd5b818160040154611e399190613021565b8160040181905550505050565b600073ffffffffffffffffffffffffffffffffffffffff166001600087815260200190815260200160002060050160009054906101000a900473ffffffffffffffffffffffffffffffffffffffff1673ffffffffffffffffffffffffffffffffffffffff1603611ee2576040517f7e43e63800000000000000000000000000000000000000000000000000000000815260040160405180910390fd5b6000600160008781526020019081526020016000209050600073ffffffffffffffffffffffffffffffffffffffff163373ffffffffffffffffffffffffffffffffffffffff1614158015611f8557503373ffffffffffffffffffffffffffffffffffffffff168160050160009054906101000a900473ffffffffffffffffffffffffffffffffffffffff1673ffffffffffffffffffffffffffffffffffffffff16145b1561202d57600085511115611fa75784816001019081611fa59190612ef1565b505b600084511115611fc45783816002019081611fc29190612ef1565b505b6000831115611fd7578281600301819055505b6000821115611fea578181600401819055505b857f39f0d401d18da2b195857156af2ee3943eede210fc3df5d49ce670026b2a809a8686868660405161202094939291906132c7565b60405180910390a26120e8565b3373ffffffffffffffffffffffffffffffffffffffff168160050160009054906101000a900473ffffffffffffffffffffffffffffffffffffffff1673ffffffffffffffffffffffffffffffffffffffff16146120b6576040517f98e19bd400000000000000000000000000000000000000000000000000000000815260040160405180910390fd5b6040517f510fbaea00000000000000000000000000000000000000000000000000000000815260040160405180910390fd5b505050505050565b6040518060e001604052806000815260200160608152602001606081526020016000815260200160008152602001600073ffffffffffffffffffffffffffffffffffffffff1681526020016000151581525090565b50805461215190612d14565b6000825580601f106121635750612182565b601f0160209004906000526020600020908101906121819190612185565b5b50565b5b8082111561219e576000816000905550600101612186565b5090565b6000604051905090565b600080fd5b600080fd5b600080fd5b600080fd5b6000601f19601f8301169050919050565b7f4e487b7100000000000000000000000000000000000000000000000000000000600052604160045260246000fd5b612209826121c0565b810181811067ffffffffffffffff82111715612228576122276121d1565b5b80604052505050565b600061223b6121a2565b90506122478282612200565b919050565b600067ffffffffffffffff821115612267576122666121d1565b5b612270826121c0565b9050602081019050919050565b82818337600083830152505050565b600061229f61229a8461224c565b612231565b9050828152602081018484840111156122bb576122ba6121bb565b5b6122c684828561227d565b509392505050565b600082601f8301126122e3576122e26121b6565b5b81356122f384826020860161228c565b91505092915050565b6004811061230957600080fd5b50565b60008135905061231b816122fc565b92915050565b60008060408385031215612338576123376121ac565b5b600083013567ffffffffffffffff811115612356576123556121b1565b5b612362858286016122ce565b92505060206123738582860161230c565b9150509250929050565b6000819050919050565b6123908161237d565b811461239b57600080fd5b50565b6000813590506123ad81612387565b92915050565b6000602082840312156123c9576123c86121ac565b5b60006123d78482850161239e565b91505092915050565b6123e98161237d565b82525050565b600081519050919050565b600082825260208201905092915050565b60005b8381101561242957808201518184015260208101905061240e565b60008484015250505050565b6000612440826123ef565b61244a81856123fa565b935061245a81856020860161240b565b612463816121c0565b840191505092915050565b600073ffffffffffffffffffffffffffffffffffffffff82169050919050565b60006124998261246e565b9050919050565b6124a98161248e565b82525050565b60008115159050919050565b6124c4816124af565b82525050565b600060e0820190506124df600083018a6123e0565b81810360208301526124f18189612435565b905081810360408301526125058188612435565b905061251460608301876123e0565b61252160808301866123e0565b61252e60a08301856124a0565b61253b60c08301846124bb565b98975050505050505050565b6125508161237d565b82525050565b600082825260208201905092915050565b6000612572826123ef565b61257c8185612556565b935061258c81856020860161240b565b612595816121c0565b840191505092915050565b6125a98161248e565b82525050565b6125b8816124af565b82525050565b600060e0830160008301516125d66000860182612547565b50602083015184820360208601526125ee8282612567565b915050604083015184820360408601526126088282612567565b915050606083015161261d6060860182612547565b5060808301516126306080860182612547565b5060a083015161264360a08601826125a0565b5060c083015161265660c08601826125af565b508091505092915050565b6000602082019050818103600083015261267b81846125be565b905092915050565b600060208201905061269860008301846124a0565b92915050565b6126a78161248e565b81146126b257600080fd5b50565b6000813590506126c48161269e565b92915050565b6000602082840312156126e0576126df6121ac565b5b60006126ee848285016126b5565b91505092915050565b600081519050919050565b600082825260208201905092915050565b6000819050602082019050919050565b600061272f8383612547565b60208301905092915050565b6000602082019050919050565b6000612753826126f7565b61275d8185612702565b935061276883612713565b8060005b838110156127995781516127808882612723565b975061278b8361273b565b92505060018101905061276c565b5085935050505092915050565b600060208201905081810360008301526127c08184612748565b905092915050565b600080604083850312156127df576127de6121ac565b5b60006127ed858286016126b5565b92505060206127fe8582860161239e565b9150509250929050565b600060208201905061281d60008301846123e0565b92915050565b7f4e487b7100000000000000000000000000000000000000000000000000000000600052602160045260246000fd5b6004811061286357612862612823565b5b50565b600081905061287482612852565b919050565b600061288482612866565b9050919050565b61289481612879565b82525050565b60006080820190506128af60008301876124a0565b81810360208301526128c18186612435565b905081810360408301526128d58185612435565b90506128e4606083018461288b565b95945050505050565b60008060008060808587031215612907576129066121ac565b5b6000612915878288016126b5565b945050602085013567ffffffffffffffff811115612936576129356121b1565b5b612942878288016122ce565b935050604085013567ffffffffffffffff811115612963576129626121b1565b5b61296f878288016122ce565b92505060606129808782880161230c565b91505092959194509250565b612995816124af565b81146129a057600080fd5b50565b6000813590506129b28161298c565b92915050565b600080600080600060a086880312156129d4576129d36121ac565b5b600086013567ffffffffffffffff8111156129f2576129f16121b1565b5b6129fe888289016122ce565b955050602086013567ffffffffffffffff811115612a1f57612a1e6121b1565b5b612a2b888289016122ce565b9450506040612a3c8882890161239e565b9350506060612a4d8882890161239e565b9250506080612a5e888289016129a3565b9150509295509295909350565b600081519050919050565b600082825260208201905092915050565b6000819050602082019050919050565b600060e083016000830151612aaf6000860182612547565b5060208301518482036020860152612ac78282612567565b91505060408301518482036040860152612ae18282612567565b9150506060830151612af66060860182612547565b506080830151612b096080860182612547565b5060a0830151612b1c60a08601826125a0565b5060c0830151612b2f60c08601826125af565b508091505092915050565b6000612b468383612a97565b905092915050565b6000602082019050919050565b6000612b6682612a6b565b612b708185612a76565b935083602082028501612b8285612a87565b8060005b85811015612bbe5784840389528151612b9f8582612b3a565b9450612baa83612b4e565b925060208a01995050600181019050612b86565b50829750879550505050505092915050565b60006020820190508181036000830152612bea8184612b5b565b905092915050565b60008060408385031215612c0957612c086121ac565b5b6000612c178582860161239e565b9250506020612c288582860161239e565b9150509250929050565b600080600080600060a08688031215612c4e57612c4d6121ac565b5b6000612c5c8882890161239e565b955050602086013567ffffffffffffffff811115612c7d57612c7c6121b1565b5b612c89888289016122ce565b945050604086013567ffffffffffffffff811115612caa57612ca96121b1565b5b612cb6888289016122ce565b9350506060612cc78882890161239e565b9250506080612cd88882890161239e565b9150509295509295909350565b7f4e487b7100000000000000000000000000000000000000000000000000000000600052602260045260246000fd5b60006002820490506001821680612d2c57607f821691505b602082108103612d3f57612d3e612ce5565b5b50919050565b60008190508160005260206000209050919050565b60006020601f8301049050919050565b600082821b905092915050565b600060088302612da77fffffffffffffffffffffffffffffffffffffffffffffffffffffffffffffffff82612d6a565b612db18683612d6a565b95508019841693508086168417925050509392505050565b6000819050919050565b6000612dee612de9612de48461237d565b612dc9565b61237d565b9050919050565b6000819050919050565b612e0883612dd3565b612e1c612e1482612df5565b848454612d77565b825550505050565b600090565b612e31612e24565b612e3c818484612dff565b505050565b5b81811015612e6057612e55600082612e29565b600181019050612e42565b5050565b601f821115612ea557612e7681612d45565b612e7f84612d5a565b81016020851015612e8e578190505b612ea2612e9a85612d5a565b830182612e41565b50505b505050565b600082821c905092915050565b6000612ec860001984600802612eaa565b1980831691505092915050565b6000612ee18383612eb7565b9150826002028217905092915050565b612efa826123ef565b67ffffffffffffffff811115612f1357612f126121d1565b5b612f1d8254612d14565b612f28828285612e64565b600060209050601f831160018114612f5b5760008415612f49578287015190505b612f538582612ed5565b865550612fbb565b601f198416612f6986612d45565b60005b82811015612f9157848901518255600182019150602085019450602081019050612f6c565b86831015612fae5784890151612faa601f891682612eb7565b8355505b6001600288020188555050505b505050505050565b7f4e487b7100000000000000000000000000000000000000000000000000000000600052603260045260246000fd5b7f4e487b7100000000000000000000000000000000000000000000000000000000600052601160045260246000fd5b600061302c8261237d565b91506130378361237d565b925082820390508181111561304f5761304e612ff2565b5b92915050565b7f4e487b7100000000000000000000000000000000000000000000000000000000600052603160045260246000fd5b7f4661726d6572206e6f7420726567697374657265640000000000000000000000600082015250565b60006130ba6015836123fa565b91506130c582613084565b602082019050919050565b600060208201905081810360008301526130e9816130ad565b9050919050565b7f5072696365206d7573742062652067726561746572207468616e207a65726f00600082015250565b6000613126601f836123fa565b9150613131826130f0565b602082019050919050565b6000602082019050818103600083015261315581613119565b9050919050565b7f5175616e74697479206d7573742062652067726561746572207468616e207a6560008201527f726f000000000000000000000000000000000000000000000000000000000000602082015250565b60006131b86022836123fa565b91506131c38261315c565b604082019050919050565b600060208201905081810360008301526131e7816131ab565b9050919050565b60006131f98261237d565b91507fffffffffffffffffffffffffffffffffffffffffffffffffffffffffffffffff820361322b5761322a612ff2565b5b600182019050919050565b600081905092915050565b600061324c826123ef565b6132568185613236565b935061326681856020860161240b565b80840191505092915050565b600061327e8284613241565b915081905092915050565b600060608201905081810360008301526132a38186612435565b90506132b260208301856123e0565b6132bf60408301846123e0565b949350505050565b600060808201905081810360008301526132e18187612435565b905081810360208301526132f58186612435565b905061330460408301856123e0565b61331160608301846123e0565b9594505050505056fea2646970667358221220a4b80709595e40737ecae9bdf5eb2b77eca4ead45a67b07ced97e93fb9a3b04e64736f6c63430008180033",
  "linkReferences": {},
  "deployedLinkReferences": {}
}