{
  "_format": "hh-sol-artifact-1",
  "contractName": "PlatformToken",
  "sourceName": "contracts/PlatformToken.sol",
  "abi": [
    {
      "inputs": [],
      "stateMutability": "nonpayable",
      "type": "constructor"
    },
    {
      "inputs": [
        {
          "internalType": "address",
          "name": "spender",
          "type": "address"
        },
        {
          "internalType": "uint256",
          "name": "allowance",
          "type": "uint256"
        },
        {
          "internalType": "uint256",
          "name": "needed",
          "type": "uint256"
        }
      ],
      "name": "ERC20InsufficientAllowance",
      "type": "error"
    },
    {
      "inputs": [
        {
          "internalType": "address",
          "name": "sender",
          "type": "address"
        },
        {
          "internalType": "uint256",
          "name": "balance",
          "type": "uint256"
        },
        {
          "internalType": "uint256",
          "name": "needed",
          "type": "uint256"
        }
      ],
      "name": "ERC20InsufficientBalance",
      "type": "error"
    },
    {
      "inputs": [
        {
          "internalType": "address",
          "name": "approver",
          "type": "address"
        }
      ],
      "name": "ERC20InvalidApprover",
      "type": "error"
    },
    {
      "inputs": [
        {
          "internalType": "address",
          "name": "receiver",
          "type": "address"
        }
      ],
      "name": "ERC20InvalidReceiver",
      "type": "error"
    },
    {
      "inputs": [
        {
          "internalType": "address",
          "name": "sender",
          "type": "address"
        }
      ],
      "name": "ERC20InvalidSender",
      "type": "error"
    },
    {
      "inputs": [
        {
          "internalType": "address",
          "name": "spender",
          "type": "address"
        }
      ],
      "name": "ERC20InvalidSpender",
      "type": "error"
    },
    {
      "inputs": [
        {
          "internalType": "address",
          "name": "owner",
          "type": "address"
        }
      ],
      "name": "OwnableInvalidOwner",
      "type": "error"
    },
    {
      "inputs": [
        {
          "internalType": "address",
          "name": "account",
          "type": "address"
        }
      ],
      "name": "OwnableUnauthorizedAccount",
      "type": "error"
    },
    {
      "anonymous": false,
      "inputs": [
        {
          "indexed": true,
          "internalType": "address",
          "name": "owner",
          "type": "address"
        },
        {
          "indexed": true,
          "internalType": "address",
          "name": "spender",
          "type": "address"
        },
        {
          "indexed": false,
          "internalType": "uint256",
          "name": "value",
          "type": "uint256"
        }
      ],
      "name": "Approval",
      "type": "event"
    },
    {
      "anonymous": false,
      "inputs": [
        {
          "indexed": true,
          "internalType": "address",
          "name": "previousOwner",
          "type": "address"
        },
        {
          "indexed": true,
          "internalType": "address",
          "name": "newOwner",
          "type": "address"
        }
      ],
      "name": "OwnershipTransferred",
      "type": "event"
    },
    {
      "anonymous": false,
      "inputs": [
        {
          "indexed": true,
          "internalType": "address",
          "name": "from",
          "type": "address"
        },
        {
          "indexed": true,
          "internalType": "address",
          "name": "to",
          "type": "address"
        },
        {
          "indexed": false,
          "internalType": "uint256",
          "name": "value",
          "type": "uint256"
        }
      ],
      "name": "Transfer",
      "type": "event"
    },
    {
      "inputs": [
        {
          "internalType": "address",
          "name": "owner",
          "type": "address"
        },
        {
          "internalType": "address",
          "name": "spender",
          "type": "address"
        }
      ],
      "name": "allowance",
      "outputs": [
        {
          "internalType": "uint256",
          "name": "",
          "type": "uint256"
        }
      ],
      "stateMutability": "view",
      "type": "function"
    },
    {
      "inputs": [
        {
          "internalType": "address",
          "name": "spender",
          "type": "address"
        },
        {
          "internalType": "uint256",
          "name": "value",
          "type": "uint256"
        }
      ],
      "name": "approve",
      "outputs": [
        {
          "internalType": "bool",
          "name": "",
          "type": "bool"
        }
      ],
      "stateMutability": "nonpayable",
      "type": "function"
    },
    {
      "inputs": [
        {
          "internalType": "address",
          "name": "account",
          "type": "address"
        }
      ],
      "name": "balanceOf",
      "outputs": [
        {
          "internalType": "uint256",
          "name": "",
          "type": "uint256"
        }
      ],
      "stateMutability": "view",
      "type": "function"
    },
    {
      "inputs": [],
      "name": "decimals",
      "outputs": [
        {
          "internalType": "uint8",
          "name": "",
          "type": "uint8"
        }
      ],
      "stateMutability": "view",
      "type": "function"
    },
    {
      "inputs": [
        {
          "internalType": "address",
          "name": "farmer",
          "type": "address"
        }
      ],
      "name": "farmerRewardBalance",
      "outputs": [
        {
          "internalType": "uint256",
          "name": "",
          "type": "uint256"
        }
      ],
      "stateMutability": "view",
      "type": "function"
    },
    {
      "inputs": [
        {
          "internalType": "address",
          "name": "user",
          "type": "address"
        },
        {
          "internalType": "uint256",
          "name": "amount",
          "type": "uint256"
        }
      ],
      "name": "grantPremiumAccess",
      "outputs": [],
      "stateMutability": "nonpayable",
      "type": "function"
    },
    {
      "inputs": [
        {
          "internalType": "address",
          "name": "to",
          "type": "address"
        },
        {
          "internalType": "uint256",
          "name": "amount",
          "type": "uint256"
        }
      ],
      "name": "mint",
      "outputs": [],
      "stateMutability": "nonpayable",
      "type": "function"
    },
    {
      "inputs": [],
      "name": "name",
      "outputs": [
        {
          "internalType": "string",
          "name": "",
          "type": "string"
        }
      ],
      "stateMutability": "view",
      "type": "function"
    },
    {
      "inputs": [],
      "name": "owner",
      "outputs": [
        {
          "internalType": "address",
          "name": "",
          "type": "address"
        }
      ],
      "stateMutability": "view",
      "type": "function"
    },
    {
      "inputs": [],
      "name": "renounceOwnership",
      "outputs": [],
      "stateMutability": "nonpayable",
      "type": "function"
    },
    {
      "inputs": [
        {
          "internalType": "address",
          "name": "farmer",
          "type": "address"
        },
        {
          "internalType": "uint256",
          "name": "amount",
          "type": "uint256"
        }
      ],
      "name": "rewardFarmer",
      "outputs": [],
      "stateMutability": "nonpayable",
      "type": "function"
    },
    {
      "inputs": [
        {
          "internalType": "address",
          "name": "",
          "type": "address"
        }
      ],
      "name": "rewards",
      "outputs": [
        {
          "internalType": "uint256",
          "name": "",
          "type": "uint256"
        }
      ],
      "stateMutability": "view",
      "type": "function"
    },
    {
      "inputs": [],
      "name": "symbol",
      "outputs": [
        {
          "internalType": "string",
          "name": "",
          "type": "string"
        }
      ],
      "stateMutability": "view",
      "type": "function"
    },
    {
      "inputs": [],
      "name": "totalSupply",
      "outputs": [
        {
          "internalType": "uint256",
          "name": "",
          "type": "uint256"
        }
      ],
      "stateMutability": "view",
      "type": "function"
    },
    {
      "inputs": [
        {
          "internalType": "address",
          "name": "to",
          "type": "address"
        },
        {
          "internalType": "uint256",
          "name": "value",
          "type": "uint256"
        }
      ],
      "name": "transfer",
      "outputs": [
        {
          "internalType": "bool",
          "name": "",
          "type": "bool"
        }
      ],
      "stateMutability": "nonpayable",
      "type": "function"
    },
    {
      "inputs": [
        {
          "internalType": "address",
          "name": "from",
          "type": "address"
        },
        {
          "internalType": "address",
          "name": "to",
          "type": "address"
        },
        {
          "internalType": "uint256",
          "name": "value",
          "type": "uint256"
        }
      ],
      "name": "transferFrom",
      "outputs": [
        {
          "internalType": "bool",
          "name": "",
          "type": "bool"
        }
      ],
      "stateMutability": "nonpayable",
      "type": "function"
    },
    {
      "inputs": [
        {
          "internalType": "address",
          "name": "newOwner",
          "type": "address"
        }
      ],
      "name": "transferOwnership",
      "outputs": [],
      "stateMutability": "nonpayable",
      "type": "function"
    }
  ],
  "bytecode": "0x60806040523480156200001157600080fd5b50336040518060400160405280600d81526020017f506c6174666f726d546f6b656e000000000000000000000000000000000000008152506040518060400160405280600381526020017f50544b0000000000000000000000000000000000000000000000000000000000815250816003908162000090919062000790565b508060049081620000a2919062000790565b505050600073ffffffffffffffffffffffffffffffffffffffff168173ffffffffffffffffffffffffffffffffffffffff16036200011a5760006040517f1e4fbdf7000000000000000000000000000000000000000000000000000000008152600401620001119190620008bc565b60405180910390fd5b6200012b816200017260201b60201c565b506200016c33620001416200023860201b60201c565b600a6200014f919062000a69565b6305f5e10062000160919062000aba565b6200024160201b60201c565b62000bab565b6000600560009054906101000a900473ffffffffffffffffffffffffffffffffffffffff16905081600560006101000a81548173ffffffffffffffffffffffffffffffffffffffff021916908373ffffffffffffffffffffffffffffffffffffffff1602179055508173ffffffffffffffffffffffffffffffffffffffff168173ffffffffffffffffffffffffffffffffffffffff167f8be0079c531659141344cd1fd0a4f28419497f9722a3daafe3b4186f6b6457e060405160405180910390a35050565b60006012905090565b600073ffffffffffffffffffffffffffffffffffffffff168273ffffffffffffffffffffffffffffffffffffffff1603620002b65760006040517fec442f05000000000000000000000000000000000000000000000000000000008152600401620002ad9190620008bc565b60405180910390fd5b620002ca60008383620002ce60201b60201c565b5050565b620002e1838383620002e660201b60201c565b505050565b600073ffffffffffffffffffffffffffffffffffffffff168373ffffffffffffffffffffffffffffffffffffffff16036200033c5780600260008282546200032f919062000b05565b9250508190555062000412565b60008060008573ffffffffffffffffffffffffffffffffffffffff1673ffffffffffffffffffffffffffffffffffffffff16815260200190815260200160002054905081811015620003cb578381836040517fe450d38c000000000000000000000000000000000000000000000000000000008152600401620003c29392919062000b51565b60405180910390fd5b8181036000808673ffffffffffffffffffffffffffffffffffffffff1673ffffffffffffffffffffffffffffffffffffffff16815260200190815260200160002081905550505b600073ffffffffffffffffffffffffffffffffffffffff168273ffffffffffffffffffffffffffffffffffffffff16036200045d5780600260008282540392505081905550620004aa565b806000808473ffffffffffffffffffffffffffffffffffffffff1673ffffffffffffffffffffffffffffffffffffffff168152602001908152602001600020600082825401925050819055505b8173ffffffffffffffffffffffffffffffffffffffff168373ffffffffffffffffffffffffffffffffffffffff167fddf252ad1be2c89b69c2b068fc378daa952ba7f163c4a11628f55a4df523b3ef8360405162000509919062000b8e565b60405180910390a3505050565b600081519050919050565b7f4e487b7100000000000000000000000000000000000000000000000000000000600052604160045260246000fd5b7f4e487b7100000000000000000000000000000000000000000000000000000000600052602260045260246000fd5b600060028204905060018216806200059857607f821691505b602082108103620005ae57620005ad62000550565b5b50919050565b60008190508160005260206000209050919050565b60006020601f8301049050919050565b600082821b905092915050565b600060088302620006187fffffffffffffffffffffffffffffffffffffffffffffffffffffffffffffffff82620005d9565b620006248683620005d9565b95508019841693508086168417925050509392505050565b6000819050919050565b6000819050919050565b6000620006716200066b62000665846200063c565b62000646565b6200063c565b9050919050565b6000819050919050565b6200068d8362000650565b620006a56200069c8262000678565b848454620005e6565b825550505050565b600090565b620006bc620006ad565b620006c981848462000682565b505050565b5b81811015620006f157620006e5600082620006b2565b600181019050620006cf565b5050565b601f82111562000740576200070a81620005b4565b6200071584620005c9565b8101602085101562000725578190505b6200073d6200073485620005c9565b830182620006ce565b50505b505050565b600082821c905092915050565b6000620007656000198460080262000745565b1980831691505092915050565b600062000780838362000752565b9150826002028217905092915050565b6200079b8262000516565b67ffffffffffffffff811115620007b757620007b662000521565b5b620007c382546200057f565b620007d0828285620006f5565b600060209050601f831160018114620008085760008415620007f3578287015190505b620007ff858262000772565b8655506200086f565b601f1984166200081886620005b4565b60005b8281101562000842578489015182556001820191506020850194506020810190506200081b565b868310156200086257848901516200085e601f89168262000752565b8355505b6001600288020188555050505b505050505050565b600073ffffffffffffffffffffffffffffffffffffffff82169050919050565b6000620008a48262000877565b9050919050565b620008b68162000897565b82525050565b6000602082019050620008d36000830184620008ab565b92915050565b7f4e487b7100000000000000000000000000000000000000000000000000000000600052601160045260246000fd5b60008160011c9050919050565b6000808291508390505b600185111562000967578086048111156200093f576200093e620008d9565b5b60018516156200094f5780820291505b80810290506200095f8562000908565b94506200091f565b94509492505050565b60008262000982576001905062000a55565b8162000992576000905062000a55565b8160018114620009ab5760028114620009b657620009ec565b600191505062000a55565b60ff841115620009cb57620009ca620008d9565b5b8360020a915084821115620009e557620009e4620008d9565b5b5062000a55565b5060208310610133831016604e8410600b841016171562000a265782820a90508381111562000a205762000a1f620008d9565b5b62000a55565b62000a35848484600162000915565b9250905081840481111562000a4f5762000a4e620008d9565b5b81810290505b9392505050565b600060ff82169050919050565b600062000a76826200063c565b915062000a838362000a5c565b925062000ab27fffffffffffffffffffffffffffffffffffffffffffffffffffffffffffffffff848462000970565b905092915050565b600062000ac7826200063c565b915062000ad4836200063c565b925082820262000ae4816200063c565b9150828204841483151762000afe5762000afd620008d9565b5b5092915050565b600062000b12826200063c565b915062000b1f836200063c565b925082820190508082111562000b3a5762000b39620008d9565b5b92915050565b62000b4b816200063c565b82525050565b600060608201905062000b686000830186620008ab565b62000b77602083018562000b40565b62000b86604083018462000b40565b949350505050565b600060208201905062000ba5600083018462000b40565b92915050565b61158d8062000bbb6000396000f3fe608060405234801561001057600080fd5b506004361061010b5760003560e01c8063715018a6116100a2578063a7b7f29111610071578063a7b7f291146102a8578063a9059cbb146102c4578063dd62ed3e146102f4578063f2fde38b14610324578063f7305691146103405761010b565b8063715018a6146102465780638da5cb5b1461025057806395d89b411461026e5780639bf7237a1461028c5761010b565b806323b872dd116100de57806323b872dd146101ac578063313ce567146101dc57806340c10f19146101fa57806370a08231146102165761010b565b806306fdde03146101105780630700037d1461012e578063095ea7b31461015e57806318160ddd1461018e575b600080fd5b610118610370565b60405161012591906110bd565b60405180910390f35b61014860048036038101906101439190611142565b610402565b6040516101559190611188565b60405180910390f35b610178600480360381019061017391906111cf565b61041a565b604051610185919061122a565b60405180910390f35b61019661043d565b6040516101a39190611188565b60405180910390f35b6101c660048036038101906101c19190611245565b610447565b6040516101d3919061122a565b60405180910390f35b6101e4610476565b6040516101f191906112b4565b60405180910390f35b610214600480360381019061020f91906111cf565b61047f565b005b610230600480360381019061022b9190611142565b610495565b60405161023d9190611188565b60405180910390f35b61024e6104dd565b005b6102586104f1565b60405161026591906112de565b60405180910390f35b61027661051b565b60405161028391906110bd565b60405180910390f35b6102a660048036038101906102a191906111cf565b6105ad565b005b6102c260048036038101906102bd91906111cf565b61065c565b005b6102de60048036038101906102d991906111cf565b6106b5565b6040516102eb919061122a565b60405180910390f35b61030e600480360381019061030991906112f9565b6106d8565b60405161031b9190611188565b60405180910390f35b61033e60048036038101906103399190611142565b61075f565b005b61035a60048036038101906103559190611142565b6107e5565b6040516103679190611188565b60405180910390f35b60606003805461037f90611368565b80601f01602080910402602001604051908101604052809291908181526020018280546103ab90611368565b80156103f85780601f106103cd576101008083540402835291602001916103f8565b820191906000526020600020905b8154815290600101906020018083116103db57829003601f168201915b5050505050905090565b60066020528060005260406000206000915090505481565b60008061042561082e565b9050610432818585610836565b600191505092915050565b6000600254905090565b60008061045261082e565b905061045f858285610848565b61046a8585856108dc565b60019150509392505050565b60006012905090565b6104876109d0565b6104918282610a57565b5050565b60008060008373ffffffffffffffffffffffffffffffffffffffff1673ffffffffffffffffffffffffffffffffffffffff168152602001908152602001600020549050919050565b6104e56109d0565b6104ef6000610ad9565b565b6000600560009054906101000a900473ffffffffffffffffffffffffffffffffffffffff16905090565b60606004805461052a90611368565b80601f016020809104026020016040519081016040528092919081815260200182805461055690611368565b80156105a35780601f10610578576101008083540402835291602001916105a3565b820191906000526020600020905b81548152906001019060200180831161058657829003601f168201915b5050505050905090565b6105b56109d0565b600081116105f8576040517f08c379a00000000000000000000000000000000000000000000000000000000081526004016105ef9061140b565b60405180910390fd5b6106028282610a57565b80600660008473ffffffffffffffffffffffffffffffffffffffff1673ffffffffffffffffffffffffffffffffffffffff1681526020019081526020016000206000828254610651919061145a565b925050819055505050565b8061066683610495565b10156106a7576040517f08c379a000000000000000000000000000000000000000000000000000000000815260040161069e90611500565b60405180910390fd5b6106b18282610b9f565b5050565b6000806106c061082e565b90506106cd8185856108dc565b600191505092915050565b6000600160008473ffffffffffffffffffffffffffffffffffffffff1673ffffffffffffffffffffffffffffffffffffffff16815260200190815260200160002060008373ffffffffffffffffffffffffffffffffffffffff1673ffffffffffffffffffffffffffffffffffffffff16815260200190815260200160002054905092915050565b6107676109d0565b600073ffffffffffffffffffffffffffffffffffffffff168173ffffffffffffffffffffffffffffffffffffffff16036107d95760006040517f1e4fbdf70000000000000000000000000000000000000000000000000000000081526004016107d091906112de565b60405180910390fd5b6107e281610ad9565b50565b6000600660008373ffffffffffffffffffffffffffffffffffffffff1673ffffffffffffffffffffffffffffffffffffffff168152602001908152602001600020549050919050565b600033905090565b6108438383836001610c21565b505050565b600061085484846106d8565b90507fffffffffffffffffffffffffffffffffffffffffffffffffffffffffffffffff81146108d657818110156108c6578281836040517ffb8f41b20000000000000000000000000000000000000000000000000000000081526004016108bd93929190611520565b60405180910390fd5b6108d584848484036000610c21565b5b50505050565b600073ffffffffffffffffffffffffffffffffffffffff168373ffffffffffffffffffffffffffffffffffffffff160361094e5760006040517f96c6fd1e00000000000000000000000000000000000000000000000000000000815260040161094591906112de565b60405180910390fd5b600073ffffffffffffffffffffffffffffffffffffffff168273ffffffffffffffffffffffffffffffffffffffff16036109c05760006040517fec442f050000000000000000000000000000000000000000000000000000000081526004016109b791906112de565b60405180910390fd5b6109cb838383610df8565b505050565b6109d861082e565b73ffffffffffffffffffffffffffffffffffffffff166109f66104f1565b73ffffffffffffffffffffffffffffffffffffffff1614610a5557610a1961082e565b6040517f118cdaa7000000000000000000000000000000000000000000000000000000008152600401610a4c91906112de565b60405180910390fd5b565b600073ffffffffffffffffffffffffffffffffffffffff168273ffffffffffffffffffffffffffffffffffffffff1603610ac95760006040517fec442f05000000000000000000000000000000000000000000000000000000008152600401610ac091906112de565b60405180910390fd5b610ad560008383610df8565b5050565b6000600560009054906101000a900473ffffffffffffffffffffffffffffffffffffffff16905081600560006101000a81548173ffffffffffffffffffffffffffffffffffffffff021916908373ffffffffffffffffffffffffffffffffffffffff1602179055508173ffffffffffffffffffffffffffffffffffffffff168173ffffffffffffffffffffffffffffffffffffffff167f8be0079c531659141344cd1fd0a4f28419497f9722a3daafe3b4186f6b6457e060405160405180910390a35050565b600073ffffffffffffffffffffffffffffffffffffffff168273ffffffffffffffffffffffffffffffffffffffff1603610c115760006040517f96c6fd1e000000000000000000000000000000000000000000000000000000008152600401610c0891906112de565b60405180910390fd5b610c1d82600083610df8565b5050565b600073ffffffffffffffffffffffffffffffffffffffff168473ffffffffffffffffffffffffffffffffffffffff1603610c935760006040517fe602df05000000000000000000000000000000000000000000000000000000008152600401610c8a91906112de565b60405180910390fd5b600073ffffffffffffffffffffffffffffffffffffffff168373ffffffffffffffffffffffffffffffffffffffff1603610d055760006040517f94280d62000000000000000000000000000000000000000000000000000000008152600401610cfc91906112de565b60405180910390fd5b81600160008673ffffffffffffffffffffffffffffffffffffffff1673ffffffffffffffffffffffffffffffffffffffff16815260200190815260200160002060008573ffffffffffffffffffffffffffffffffffffffff1673ffffffffffffffffffffffffffffffffffffffff168152602001908152602001600020819055508015610df2578273ffffffffffffffffffffffffffffffffffffffff168473ffffffffffffffffffffffffffffffffffffffff167f8c5be1e5ebec7d5bd14f71427d1e84f3dd0314c0f7b2291e5b200ac8c7c3b92584604051610de99190611188565b60405180910390a35b50505050565b610e03838383610e08565b505050565b600073ffffffffffffffffffffffffffffffffffffffff168373ffffffffffffffffffffffffffffffffffffffff1603610e5a578060026000828254610e4e919061145a565b92505081905550610f2d565b60008060008573ffffffffffffffffffffffffffffffffffffffff1673ffffffffffffffffffffffffffffffffffffffff16815260200190815260200160002054905081811015610ee6578381836040517fe450d38c000000000000000000000000000000000000000000000000000000008152600401610edd93929190611520565b60405180910390fd5b8181036000808673ffffffffffffffffffffffffffffffffffffffff1673ffffffffffffffffffffffffffffffffffffffff16815260200190815260200160002081905550505b600073ffffffffffffffffffffffffffffffffffffffff168273ffffffffffffffffffffffffffffffffffffffff1603610f765780600260008282540392505081905550610fc3565b806000808473ffffffffffffffffffffffffffffffffffffffff1673ffffffffffffffffffffffffffffffffffffffff168152602001908152602001600020600082825401925050819055505b8173ffffffffffffffffffffffffffffffffffffffff168373ffffffffffffffffffffffffffffffffffffffff167fddf252ad1be2c89b69c2b068fc378daa952ba7f163c4a11628f55a4df523b3ef836040516110209190611188565b60405180910390a3505050565b600081519050919050565b600082825260208201905092915050565b60005b8381101561106757808201518184015260208101905061104c565b60008484015250505050565b6000601f19601f8301169050919050565b600061108f8261102d565b6110998185611038565b93506110a9818560208601611049565b6110b281611073565b840191505092915050565b600060208201905081810360008301526110d78184611084565b905092915050565b600080fd5b600073ffffffffffffffffffffffffffffffffffffffff82169050919050565b600061110f826110e4565b9050919050565b61111f81611104565b811461112a57600080fd5b50565b60008135905061113c81611116565b92915050565b600060208284031215611158576111576110df565b5b60006111668482850161112d565b91505092915050565b6000819050919050565b6111828161116f565b82525050565b600060208201905061119d6000830184611179565b92915050565b6111ac8161116f565b81146111b757600080fd5b50565b6000813590506111c9816111a3565b92915050565b600080604083850312156111e6576111e56110df565b5b60006111f48582860161112d565b9250506020611205858286016111ba565b9150509250929050565b60008115159050919050565b6112248161120f565b82525050565b600060208201905061123f600083018461121b565b92915050565b60008060006060848603121561125e5761125d6110df565b5b600061126c8682870161112d565b935050602061127d8682870161112d565b925050604061128e868287016111ba565b9150509250925092565b600060ff82169050919050565b6112ae81611298565b82525050565b60006020820190506112c960008301846112a5565b92915050565b6112d881611104565b82525050565b60006020820190506112f360008301846112cf565b92915050565b600080604083850312156113105761130f6110df565b5b600061131e8582860161112d565b925050602061132f8582860161112d565b9150509250929050565b7f4e487b7100000000000000000000000000000000000000000000000000000000600052602260045260246000fd5b6000600282049050600182168061138057607f821691505b60208210810361139357611392611339565b5b50919050565b7f52657761726420616d6f756e74206d757374206265206772656174657220746860008201527f616e207a65726f00000000000000000000000000000000000000000000000000602082015250565b60006113f5602783611038565b915061140082611399565b604082019050919050565b60006020820190508181036000830152611424816113e8565b9050919050565b7f4e487b7100000000000000000000000000000000000000000000000000000000600052601160045260246000fd5b60006114658261116f565b91506114708361116f565b92508282019050808211156114885761148761142b565b5b92915050565b7f4e6f7420656e6f75676820746f6b656e7320666f72207072656d69756d20616360008201527f6365737300000000000000000000000000000000000000000000000000000000602082015250565b60006114ea602483611038565b91506114f58261148e565b604082019050919050565b60006020820190508181036000830152611519816114dd565b9050919050565b600060608201905061153560008301866112cf565b6115426020830185611179565b61154f6040830184611179565b94935050505056fea264697066735822122045d7c3b1bd9991496367141a19224ba205f5b42073ab905908101c7268ee7c7164736f6c63430008180033",
  "linkReferences": {},
  "deployedLinkReferences": {}
}