{
  "_format": "hh-sol-artifact-1",
  "contractName": "MicroloanPlatform",
  "sourceName": "contracts/MicroloanPlatform.sol",
  "abi": [
    {
      "inputs": [
        {
          "internalType": "address",
          "name": "_tokenAddress",
          "type": "address"
        }
      ],
      "stateMutability": "nonpayable",
      "type": "constructor"
    },
    {
      "inputs": [],
      "name": "CollateralIsLow",
      "type": "error"
    },
    {
      "inputs": [],
      "name": "InsufficientBalance",
      "type": "error"
    },
    {
      "inputs": [],
      "name": "LoanIsDefaulted",
      "type": "error"
    },
    {
      "inputs": [],
      "name": "LoanIsPaid",
      "type": "error"
    },
    {
      "inputs": [],
      "name": "MustBeInFuture",
      "type": "error"
    },
    {
      "inputs": [],
      "name": "NotAuthorized",
      "type": "error"
    },
    {
      "inputs": [],
      "name": "NotElligible",
      "type": "error"
    },
    {
      "inputs": [],
      "name": "NotYetDue",
      "type": "error"
    },
    {
      "inputs": [],
      "name": "OnlyTheBollower",
      "type": "error"
    },
    {
      "inputs": [],
      "name": "ZeroAddressDetected",
      "type": "error"
    },
    {
      "inputs": [],
      "name": "ZeroAmountNotAllowed",
      "type": "error"
    },
    {
      "anonymous": false,
      "inputs": [
        {
          "indexed": true,
          "internalType": "uint256",
          "name": "loanId",
          "type": "uint256"
        },
        {
          "indexed": true,
          "internalType": "address",
          "name": "borrower",
          "type": "address"
        }
      ],
      "name": "LoanDefaulted",
      "type": "event"
    },
    {
      "anonymous": false,
      "inputs": [
        {
          "indexed": true,
          "internalType": "uint256",
          "name": "loanId",
          "type": "uint256"
        },
        {
          "indexed": true,
          "internalType": "address",
          "name": "borrower",
          "type": "address"
        },
        {
          "indexed": false,
          "internalType": "uint256",
          "name": "loanAmount",
          "type": "uint256"
        },
        {
          "indexed": false,
          "internalType": "uint256",
          "name": "interestRate",
          "type": "uint256"
        },
        {
          "indexed": false,
          "internalType": "uint256",
          "name": "repaymentDate",
          "type": "uint256"
        },
        {
          "indexed": false,
          "internalType": "uint256",
          "name": "collateralProduceId",
          "type": "uint256"
        },
        {
          "indexed": false,
          "internalType": "uint256",
          "name": "collateralValue",
          "type": "uint256"
        }
      ],
      "name": "LoanIssued",
      "type": "event"
    },
    {
      "anonymous": false,
      "inputs": [
        {
          "indexed": true,
          "internalType": "uint256",
          "name": "loanId",
          "type": "uint256"
        },
        {
          "indexed": true,
          "internalType": "address",
          "name": "borrower",
          "type": "address"
        }
      ],
      "name": "LoanRepaid",
      "type": "event"
    },
    {
      "inputs": [
        {
          "internalType": "address",
          "name": "",
          "type": "address"
        },
        {
          "internalType": "uint256",
          "name": "",
          "type": "uint256"
        }
      ],
      "name": "borrowerLoans",
      "outputs": [
        {
          "internalType": "uint256",
          "name": "",
          "type": "uint256"
        }
      ],
      "stateMutability": "view",
      "type": "function"
    },
    {
      "inputs": [
        {
          "internalType": "uint256",
          "name": "_loanId",
          "type": "uint256"
        }
      ],
      "name": "checkLoanDefault",
      "outputs": [],
      "stateMutability": "nonpayable",
      "type": "function"
    },
    {
      "inputs": [],
      "name": "depositFunds",
      "outputs": [],
      "stateMutability": "payable",
      "type": "function"
    },
    {
      "inputs": [],
      "name": "getContractBalance",
      "outputs": [
        {
          "internalType": "uint256",
          "name": "",
          "type": "uint256"
        }
      ],
      "stateMutability": "view",
      "type": "function"
    },
    {
      "inputs": [
        {
          "internalType": "address",
          "name": "_borrower",
          "type": "address"
        },
        {
          "internalType": "uint256",
          "name": "_loanAmount",
          "type": "uint256"
        },
        {
          "internalType": "uint256",
          "name": "_interestRate",
          "type": "uint256"
        },
        {
          "internalType": "uint256",
          "name": "_repaymentDate",
          "type": "uint256"
        },
        {
          "internalType": "uint256",
          "name": "_collateralProduceId",
          "type": "uint256"
        },
        {
          "internalType": "uint256",
          "name": "_collateralValue",
          "type": "uint256"
        }
      ],
      "name": "issueLoan",
      "outputs": [
        {
          "internalType": "uint256",
          "name": "",
          "type": "uint256"
        }
      ],
      "stateMutability": "nonpayable",
      "type": "function"
    },
    {
      "inputs": [],
      "name": "loanCounter",
      "outputs": [
        {
          "internalType": "uint256",
          "name": "",
          "type": "uint256"
        }
      ],
      "stateMutability": "view",
      "type": "function"
    },
    {
      "inputs": [
        {
          "internalType": "uint256",
          "name": "",
          "type": "uint256"
        }
      ],
      "name": "loans",
      "outputs": [
        {
          "internalType": "address",
          "name": "borrower",
          "type": "address"
        },
        {
          "internalType": "uint256",
          "name": "loanAmount",
          "type": "uint256"
        },
        {
          "internalType": "uint256",
          "name": "interestRate",
          "type": "uint256"
        },
        {
          "internalType": "uint256",
          "name": "repaymentDate",
          "type": "uint256"
        },
        {
          "internalType": "uint256",
          "name": "collateralProduceId",
          "type": "uint256"
        },
        {
          "internalType": "uint256",
          "name": "collateralValue",
          "type": "uint256"
        },
        {
          "internalType": "bool",
          "name": "isRepaid",
          "type": "bool"
        },
        {
          "internalType": "bool",
          "name": "isDefaulted",
          "type": "bool"
        }
      ],
      "stateMutability": "view",
      "type": "function"
    },
    {
      "inputs": [],
      "name": "platformOwner",
      "outputs": [
        {
          "internalType": "address",
          "name": "",
          "type": "address"
        }
      ],
      "stateMutability": "view",
      "type": "function"
    },
    {
      "inputs": [
        {
          "internalType": "uint256",
          "name": "_loanId",
          "type": "uint256"
        }
      ],
      "name": "repayLoan",
      "outputs": [],
      "stateMutability": "payable",
      "type": "function"
    },
    {
      "inputs": [],
      "name": "token",
      "outputs": [
        {
          "internalType": "contract IERC20",
          "name": "",
          "type": "address"
        }
      ],
      "stateMutability": "view",
      "type": "function"
    },
    {
      "inputs": [],
      "name": "withdraw",
      "outputs": [],
      "stateMutability": "nonpayable",
      "type": "function"
    },
    {
      "stateMutability": "payable",
      "type": "receive"
    }
  ],
  "bytecode": "0x60806040523480156200001157600080fd5b50604051620014e0380380620014e0833981810160405281019062000037919062000129565b80600260006101000a81548173ffffffffffffffffffffffffffffffffffffffff021916908373ffffffffffffffffffffffffffffffffffffffff160217905550336000806101000a81548173ffffffffffffffffffffffffffffffffffffffff021916908373ffffffffffffffffffffffffffffffffffffffff160217905550506200015b565b600080fd5b600073ffffffffffffffffffffffffffffffffffffffff82169050919050565b6000620000f182620000c4565b9050919050565b6200010381620000e4565b81146200010f57600080fd5b50565b6000815190506200012381620000f8565b92915050565b600060208284031215620001425762000141620000bf565b5b6000620001528482850162000112565b91505092915050565b611375806200016b6000396000f3fe6080604052600436106100a05760003560e01c80636f9fb98a116100645780636f9fb98a1461017f578063ab7b1c89146101aa578063e1ec3c68146101c6578063e2c41dbc1461020a578063e3ed190214610214578063fc0c546a14610251576100a7565b80631fd3ca77146100ac57806334d9289e146100d55780633ccfd60b1461010057806344bd9b1c146101175780634df8ccb114610154576100a7565b366100a757005b600080fd5b3480156100b857600080fd5b506100d360048036038101906100ce9190610e21565b61027c565b005b3480156100e157600080fd5b506100ea6103a3565b6040516100f79190610e5d565b60405180910390f35b34801561010c57600080fd5b506101156103a9565b005b34801561012357600080fd5b5061013e60048036038101906101399190610ed6565b6104a0565b60405161014b9190610e5d565b60405180910390f35b34801561016057600080fd5b506101696109a9565b6040516101769190610f72565b60405180910390f35b34801561018b57600080fd5b506101946109cd565b6040516101a19190610e5d565b60405180910390f35b6101c460048036038101906101bf9190610e21565b610a64565b005b3480156101d257600080fd5b506101ed60048036038101906101e89190610e21565b610c5b565b604051610201989796959493929190610fa8565b60405180910390f35b610212610cdd565b005b34801561022057600080fd5b5061023b60048036038101906102369190611026565b610d6d565b6040516102489190610e5d565b60405180910390f35b34801561025d57600080fd5b50610266610d9e565b60405161027391906110c5565b60405180910390f35b600060036000838152602001908152602001600020905080600301544210156102d1576040517f3f164d9900000000000000000000000000000000000000000000000000000000815260040160405180910390fd5b8060060160009054906101000a900460ff161561031a576040517f133e50af00000000000000000000000000000000000000000000000000000000815260040160405180910390fd5b60018160060160016101000a81548160ff0219169083151502179055508060000160009054906101000a900473ffffffffffffffffffffffffffffffffffffffff1673ffffffffffffffffffffffffffffffffffffffff16827f13b88e6866f0156d706fecfa22b678de5fc2b749c1d2307f6f47eb541385f1ec60405160405180910390a35050565b60015481565b60008054906101000a900473ffffffffffffffffffffffffffffffffffffffff1673ffffffffffffffffffffffffffffffffffffffff163373ffffffffffffffffffffffffffffffffffffffff1614610437576040517f08c379a000000000000000000000000000000000000000000000000000000000815260040161042e9061113d565b60405180910390fd5b60008054906101000a900473ffffffffffffffffffffffffffffffffffffffff1673ffffffffffffffffffffffffffffffffffffffff166108fc479081150290604051600060405180830381858888f1935050505015801561049d573d6000803e3d6000fd5b50565b60008060009054906101000a900473ffffffffffffffffffffffffffffffffffffffff1673ffffffffffffffffffffffffffffffffffffffff163373ffffffffffffffffffffffffffffffffffffffff1614610531576040517f08c379a00000000000000000000000000000000000000000000000000000000081526004016105289061113d565b60405180910390fd5b600073ffffffffffffffffffffffffffffffffffffffff168773ffffffffffffffffffffffffffffffffffffffff1603610597576040517f510fbaea00000000000000000000000000000000000000000000000000000000815260040160405180910390fd5b6000600260009054906101000a900473ffffffffffffffffffffffffffffffffffffffff1673ffffffffffffffffffffffffffffffffffffffff166370a08231896040518263ffffffff1660e01b81526004016105f49190610f72565b602060405180830381865afa158015610611573d6000803e3d6000fd5b505050506040513d601f19601f820116820180604052508101906106359190611172565b101561066d576040517fd727bd3700000000000000000000000000000000000000000000000000000000815260040160405180910390fd5b600086116106a7576040517f0f43956a00000000000000000000000000000000000000000000000000000000815260040160405180910390fd5b4284116106e0576040517f0e14fe1c00000000000000000000000000000000000000000000000000000000815260040160405180910390fd5b858211610719576040517fe2475e9600000000000000000000000000000000000000000000000000000000815260040160405180910390fd5b85471015610753576040517ff4d678b800000000000000000000000000000000000000000000000000000000815260040160405180910390fd5b60016000815480929190610766906111ce565b91905055506040518061010001604052808873ffffffffffffffffffffffffffffffffffffffff1681526020018781526020018681526020018581526020018481526020018381526020016000151581526020016000151581525060036000600154815260200190815260200160002060008201518160000160006101000a81548173ffffffffffffffffffffffffffffffffffffffff021916908373ffffffffffffffffffffffffffffffffffffffff1602179055506020820151816001015560408201518160020155606082015181600301556080820151816004015560a0820151816005015560c08201518160060160006101000a81548160ff02191690831515021790555060e08201518160060160016101000a81548160ff021916908315150217905550905050600460008873ffffffffffffffffffffffffffffffffffffffff1673ffffffffffffffffffffffffffffffffffffffff16815260200190815260200160002060015490806001815401808255809150506001900390600052602060002001600090919091909150558673ffffffffffffffffffffffffffffffffffffffff166108fc879081150290604051600060405180830381858888f19350505050158015610940573d6000803e3d6000fd5b508673ffffffffffffffffffffffffffffffffffffffff166001547f70edffff840e74de168dc6256bc061c44b9820a9092f0ed1c3410339489b1e368888888888604051610992959493929190611216565b60405180910390a360015490509695505050505050565b60008054906101000a900473ffffffffffffffffffffffffffffffffffffffff1681565b60008060009054906101000a900473ffffffffffffffffffffffffffffffffffffffff1673ffffffffffffffffffffffffffffffffffffffff163373ffffffffffffffffffffffffffffffffffffffff1614610a5e576040517f08c379a0000000000000000000000000000000000000000000000000000000008152600401610a559061113d565b60405180910390fd5b47905090565b60006003600083815260200190815260200160002090506000610a8f82600101548360020154610dc4565b8260010154610a9e9190611269565b90508160000160009054906101000a900473ffffffffffffffffffffffffffffffffffffffff1673ffffffffffffffffffffffffffffffffffffffff163373ffffffffffffffffffffffffffffffffffffffff1614610b29576040517f3ffe92db00000000000000000000000000000000000000000000000000000000815260040160405180910390fd5b8160060160009054906101000a900460ff1615610b72576040517f133e50af00000000000000000000000000000000000000000000000000000000815260040160405180910390fd5b8160060160019054906101000a900460ff1615610bbb576040517fdc0e4f7100000000000000000000000000000000000000000000000000000000815260040160405180910390fd5b80341015610bf5576040517ff4d678b800000000000000000000000000000000000000000000000000000000815260040160405180910390fd5b60018260060160006101000a81548160ff0219169083151502179055503373ffffffffffffffffffffffffffffffffffffffff16837fe69d7686a8bc68278b8c5419579f91716b3ef2ac2fac0d8cf80b8011f8f458a460405160405180910390a3505050565b60036020528060005260406000206000915090508060000160009054906101000a900473ffffffffffffffffffffffffffffffffffffffff16908060010154908060020154908060030154908060040154908060050154908060060160009054906101000a900460ff16908060060160019054906101000a900460ff16905088565b60008054906101000a900473ffffffffffffffffffffffffffffffffffffffff1673ffffffffffffffffffffffffffffffffffffffff163373ffffffffffffffffffffffffffffffffffffffff1614610d6b576040517f08c379a0000000000000000000000000000000000000000000000000000000008152600401610d629061113d565b60405180910390fd5b565b60046020528160005260406000208181548110610d8957600080fd5b90600052602060002001600091509150505481565b600260009054906101000a900473ffffffffffffffffffffffffffffffffffffffff1681565b600060648284610dd4919061129d565b610dde919061130e565b905092915050565b600080fd5b6000819050919050565b610dfe81610deb565b8114610e0957600080fd5b50565b600081359050610e1b81610df5565b92915050565b600060208284031215610e3757610e36610de6565b5b6000610e4584828501610e0c565b91505092915050565b610e5781610deb565b82525050565b6000602082019050610e726000830184610e4e565b92915050565b600073ffffffffffffffffffffffffffffffffffffffff82169050919050565b6000610ea382610e78565b9050919050565b610eb381610e98565b8114610ebe57600080fd5b50565b600081359050610ed081610eaa565b92915050565b60008060008060008060c08789031215610ef357610ef2610de6565b5b6000610f0189828a01610ec1565b9650506020610f1289828a01610e0c565b9550506040610f2389828a01610e0c565b9450506060610f3489828a01610e0c565b9350506080610f4589828a01610e0c565b92505060a0610f5689828a01610e0c565b9150509295509295509295565b610f6c81610e98565b82525050565b6000602082019050610f876000830184610f63565b92915050565b60008115159050919050565b610fa281610f8d565b82525050565b600061010082019050610fbe600083018b610f63565b610fcb602083018a610e4e565b610fd86040830189610e4e565b610fe56060830188610e4e565b610ff26080830187610e4e565b610fff60a0830186610e4e565b61100c60c0830185610f99565b61101960e0830184610f99565b9998505050505050505050565b6000806040838503121561103d5761103c610de6565b5b600061104b85828601610ec1565b925050602061105c85828601610e0c565b9150509250929050565b6000819050919050565b600061108b61108661108184610e78565b611066565b610e78565b9050919050565b600061109d82611070565b9050919050565b60006110af82611092565b9050919050565b6110bf816110a4565b82525050565b60006020820190506110da60008301846110b6565b92915050565b600082825260208201905092915050565b7f4e6f7420617574686f72697a6564000000000000000000000000000000000000600082015250565b6000611127600e836110e0565b9150611132826110f1565b602082019050919050565b600060208201905081810360008301526111568161111a565b9050919050565b60008151905061116c81610df5565b92915050565b60006020828403121561118857611187610de6565b5b60006111968482850161115d565b91505092915050565b7f4e487b7100000000000000000000000000000000000000000000000000000000600052601160045260246000fd5b60006111d982610deb565b91507fffffffffffffffffffffffffffffffffffffffffffffffffffffffffffffffff820361120b5761120a61119f565b5b600182019050919050565b600060a08201905061122b6000830188610e4e565b6112386020830187610e4e565b6112456040830186610e4e565b6112526060830185610e4e565b61125f6080830184610e4e565b9695505050505050565b600061127482610deb565b915061127f83610deb565b92508282019050808211156112975761129661119f565b5b92915050565b60006112a882610deb565b91506112b383610deb565b92508282026112c181610deb565b915082820484148315176112d8576112d761119f565b5b5092915050565b7f4e487b7100000000000000000000000000000000000000000000000000000000600052601260045260246000fd5b600061131982610deb565b915061132483610deb565b925082611334576113336112df565b5b82820490509291505056fea26469706673582212201df8e7181df397193db93f871173597801210a84ad6c6d2bed0081a7941de02c64736f6c63430008180033",
  "linkReferences": {},
  "deployedLinkReferences": {}
}