{
  "_format": "hh-sol-artifact-1",
  "contractName": "TransactionController",
  "sourceName": "contracts/TransactionController.sol",
  "abi": [
    {
      "inputs": [
        {
          "internalType": "address",
          "name": "_marketPlace",
          "type": "address"
        }
      ],
      "stateMutability": "nonpayable",
      "type": "constructor"
    },
    {
      "inputs": [],
      "name": "InsufficientAmount",
      "type": "error"
    },
    {
      "inputs": [],
      "name": "InvalidAddress",
      "type": "error"
    },
    {
      "inputs": [],
      "name": "InvalidCode",
      "type": "error"
    },
    {
      "inputs": [],
      "name": "InvalidTransaction",
      "type": "error"
    },
    {
      "inputs": [],
      "name": "OutOfStock",
      "type": "error"
    },
    {
      "inputs": [],
      "name": "TransactionCompleted",
      "type": "error"
    },
    {
      "inputs": [],
      "name": "TransactionLocked",
      "type": "error"
    },
    {
      "inputs": [],
      "name": "Unathorized",
      "type": "error"
    },
    {
      "anonymous": false,
      "inputs": [
        {
          "indexed": true,
          "internalType": "address",
          "name": "farmer",
          "type": "address"
        },
        {
          "indexed": false,
          "internalType": "uint256",
          "name": "amount",
          "type": "uint256"
        }
      ],
      "name": "FundsDeposited",
      "type": "event"
    },
    {
      "anonymous": false,
      "inputs": [
        {
          "indexed": false,
          "internalType": "address",
          "name": "sender",
          "type": "address"
        },
        {
          "indexed": false,
          "internalType": "address",
          "name": "receiver",
          "type": "address"
        },
        {
          "indexed": false,
          "internalType": "uint256",
          "name": "amount",
          "type": "uint256"
        }
      ],
      "name": "FundsTransferred",
      "type": "event"
    },
    {
      "anonymous": false,
      "inputs": [
        {
          "indexed": false,
          "internalType": "address",
          "name": "farmer",
          "type": "address"
        },
        {
          "indexed": false,
          "internalType": "uint256",
          "name": "amount",
          "type": "uint256"
        }
      ],
      "name": "FundsWithdrawn",
      "type": "event"
    },
    {
      "anonymous": false,
      "inputs": [
        {
          "indexed": true,
          "internalType": "address",
          "name": "buyer",
          "type": "address"
        },
        {
          "indexed": true,
          "internalType": "uint256",
          "name": "transactionId",
          "type": "uint256"
        },
        {
          "indexed": false,
          "internalType": "enum TransactionController.PaymentStatus",
          "name": "paymentStatus",
          "type": "uint8"
        }
      ],
      "name": "InstallmentPaid",
      "type": "event"
    },
    {
      "anonymous": false,
      "inputs": [
        {
          "indexed": true,
          "internalType": "address",
          "name": "buyer",
          "type": "address"
        },
        {
          "indexed": true,
          "internalType": "address",
          "name": "farmer",
          "type": "address"
        },
        {
          "indexed": true,
          "internalType": "uint256",
          "name": "itemId",
          "type": "uint256"
        },
        {
          "indexed": false,
          "internalType": "uint256",
          "name": "amount",
          "type": "uint256"
        },
        {
          "indexed": false,
          "internalType": "uint16",
          "name": "deliveryCode",
          "type": "uint16"
        }
      ],
      "name": "ItemBought",
      "type": "event"
    },
    {
      "anonymous": false,
      "inputs": [
        {
          "indexed": true,
          "internalType": "address",
          "name": "buyer",
          "type": "address"
        },
        {
          "indexed": true,
          "internalType": "address",
          "name": "farmer",
          "type": "address"
        },
        {
          "indexed": true,
          "internalType": "uint256",
          "name": "itemId",
          "type": "uint256"
        }
      ],
      "name": "ItemDelivered",
      "type": "event"
    },
    {
      "anonymous": false,
      "inputs": [
        {
          "indexed": true,
          "internalType": "address",
          "name": "buyer",
          "type": "address"
        },
        {
          "indexed": true,
          "internalType": "uint256",
          "name": "transactionId",
          "type": "uint256"
        },
        {
          "indexed": false,
          "internalType": "uint256",
          "name": "amount",
          "type": "uint256"
        }
      ],
      "name": "TransactionCancelled",
      "type": "event"
    },
    {
      "inputs": [
        {
          "internalType": "address",
          "name": "",
          "type": "address"
        }
      ],
      "name": "balances",
      "outputs": [
        {
          "internalType": "uint256",
          "name": "",
          "type": "uint256"
        }
      ],
      "stateMutability": "view",
      "type": "function"
    },
    {
      "inputs": [
        {
          "internalType": "uint256",
          "name": "_itemId",
          "type": "uint256"
        },
        {
          "internalType": "address",
          "name": "_farmer",
          "type": "address"
        },
        {
          "internalType": "bool",
          "name": "_partPayment",
          "type": "bool"
        },
        {
          "internalType": "uint256",
          "name": "_quantity",
          "type": "uint256"
        }
      ],
      "name": "buyItem",
      "outputs": [],
      "stateMutability": "payable",
      "type": "function"
    },
    {
      "inputs": [
        {
          "internalType": "uint256",
          "name": "_transactionId",
          "type": "uint256"
        }
      ],
      "name": "cancelTransaction",
      "outputs": [],
      "stateMutability": "nonpayable",
      "type": "function"
    },
    {
      "inputs": [],
      "name": "getBuyerAllPurchases",
      "outputs": [
        {
          "internalType": "uint256[]",
          "name": "",
          "type": "uint256[]"
        }
      ],
      "stateMutability": "view",
      "type": "function"
    },
    {
      "inputs": [
        {
          "internalType": "uint256",
          "name": "_transactionId",
          "type": "uint256"
        }
      ],
      "name": "getBuyerPurchaseDetails",
      "outputs": [
        {
          "internalType": "uint256",
          "name": "itemId",
          "type": "uint256"
        },
        {
          "internalType": "uint256",
          "name": "amount",
          "type": "uint256"
        },
        {
          "internalType": "address",
          "name": "farmer",
          "type": "address"
        },
        {
          "internalType": "enum TransactionController.Status",
          "name": "status",
          "type": "uint8"
        },
        {
          "internalType": "enum TransactionController.PaymentStatus",
          "name": "paymentStatus",
          "type": "uint8"
        }
      ],
      "stateMutability": "view",
      "type": "function"
    },
    {
      "inputs": [],
      "name": "getBuyerUnverifiedOrders",
      "outputs": [
        {
          "internalType": "uint256[]",
          "name": "",
          "type": "uint256[]"
        }
      ],
      "stateMutability": "view",
      "type": "function"
    },
    {
      "inputs": [],
      "name": "getFarmerBalance",
      "outputs": [
        {
          "internalType": "uint256",
          "name": "pendingTotal",
          "type": "uint256"
        },
        {
          "internalType": "uint256",
          "name": "balance",
          "type": "uint256"
        }
      ],
      "stateMutability": "view",
      "type": "function"
    },
    {
      "inputs": [
        {
          "internalType": "uint256",
          "name": "_transactionId",
          "type": "uint256"
        }
      ],
      "name": "payInstallment",
      "outputs": [],
      "stateMutability": "payable",
      "type": "function"
    },
    {
      "inputs": [
        {
          "internalType": "uint256",
          "name": "_transactionId",
          "type": "uint256"
        }
      ],
      "name": "startDelivery",
      "outputs": [],
      "stateMutability": "nonpayable",
      "type": "function"
    },
    {
      "inputs": [
        {
          "internalType": "uint256",
          "name": "",
          "type": "uint256"
        }
      ],
      "name": "transactions",
      "outputs": [
        {
          "internalType": "uint256",
          "name": "itemId",
          "type": "uint256"
        },
        {
          "internalType": "uint256",
          "name": "amount",
          "type": "uint256"
        },
        {
          "internalType": "address",
          "name": "farmer",
          "type": "address"
        },
        {
          "internalType": "address",
          "name": "buyer",
          "type": "address"
        },
        {
          "internalType": "enum TransactionController.Status",
          "name": "status",
          "type": "uint8"
        },
        {
          "internalType": "uint16",
          "name": "deliveryCode",
          "type": "uint16"
        },
        {
          "internalType": "enum TransactionController.PaymentStatus",
          "name": "paymentStatus",
          "type": "uint8"
        }
      ],
      "stateMutability": "view",
      "type": "function"
    },
    {
      "inputs": [
        {
          "internalType": "uint40",
          "name": "_buyerCode",
          "type": "uint40"
        },
        {
          "internalType": "uint256",
          "name": "_transactionId",
          "type": "uint256"
        }
      ],
      "name": "verifyDelivery",
      "outputs": [],
      "stateMutability": "nonpayable",
      "type": "function"
    },
    {
      "inputs": [
        {
          "internalType": "uint256",
          "name": "_amount",
          "type": "uint256"
        }
      ],
      "name": "withdrawFunds",
      "outputs": [],
      "stateMutability": "nonpayable",
      "type": "function"
    },
    {
      "stateMutability": "payable",
      "type": "receive"
    }
  ],
  "bytecode": "0x60c06040523480156200001157600080fd5b50604051620032a7380380620032a7833981810160405281019062000037919062000110565b8073ffffffffffffffffffffffffffffffffffffffff1660808173ffffffffffffffffffffffffffffffffffffffff16815250503373ffffffffffffffffffffffffffffffffffffffff1660a08173ffffffffffffffffffffffffffffffffffffffff16815250505062000142565b600080fd5b600073ffffffffffffffffffffffffffffffffffffffff82169050919050565b6000620000d882620000ab565b9050919050565b620000ea81620000cb565b8114620000f657600080fd5b50565b6000815190506200010a81620000df565b92915050565b600060208284031215620001295762000128620000a6565b5b60006200013984828501620000f9565b91505092915050565b60805160a0516131266200018160003960005050600081816102da01528181610dd50152818161137501528181611482015261169501526131266000f3fe6080604052600436106100ab5760003560e01c80639ace38c2116100645780639ace38c2146101d9578063ad57cb4c1461021c578063cd30051114610248578063e0753f4c14610273578063e16291cf1461029e578063e2f8a017146102ba576100b2565b8063155dd5ee146100b757806320718a98146100e057806327e235e3146101215780633380c0d81461015e578063348dbb0314610187578063385fe0a9146101b0576100b2565b366100b257005b600080fd5b3480156100c357600080fd5b506100de60048036038101906100d991906122a3565b6102d6565b005b3480156100ec57600080fd5b50610107600480360381019061010291906122a3565b610628565b6040516101189594939291906123df565b60405180910390f35b34801561012d57600080fd5b506101486004803603810190610143919061245e565b61073f565b604051610155919061248b565b60405180910390f35b34801561016a57600080fd5b50610185600480360381019061018091906122a3565b610757565b005b34801561019357600080fd5b506101ae60048036038101906101a991906124e3565b610b1f565b005b3480156101bc57600080fd5b506101d760048036038101906101d291906122a3565b610d6b565b005b3480156101e557600080fd5b5061020060048036038101906101fb91906122a3565b610f95565b6040516102139796959493929190612540565b60405180910390f35b34801561022857600080fd5b5061023161103f565b60405161023f9291906125af565b60405180910390f35b34801561025457600080fd5b5061025d61117b565b60405161026a9190612696565b60405180910390f35b34801561027f57600080fd5b50610288611210565b6040516102959190612696565b60405180910390f35b6102b860048036038101906102b391906126f0565b6112a5565b005b6102d460048036038101906102cf91906122a3565b6117a4565b005b60007f000000000000000000000000000000000000000000000000000000000000000073ffffffffffffffffffffffffffffffffffffffff1663401b2168336040518263ffffffff1660e01b81526004016103319190612757565b600060405180830381865afa15801561034e573d6000803e3d6000fd5b505050506040513d6000823e3d601f19601f82011682018060405250810190610377919061290d565b5050509050600073ffffffffffffffffffffffffffffffffffffffff168173ffffffffffffffffffffffffffffffffffffffff16036103eb576040517f08c379a00000000000000000000000000000000000000000000000000000000081526004016103e290612a09565b60405180910390fd5b6000821161042e576040517f08c379a000000000000000000000000000000000000000000000000000000000815260040161042590612a75565b60405180910390fd5b81600260003373ffffffffffffffffffffffffffffffffffffffff1673ffffffffffffffffffffffffffffffffffffffff1681526020019081526020016000205410156104b0576040517f08c379a00000000000000000000000000000000000000000000000000000000081526004016104a790612ae1565b60405180910390fd5b81600260003373ffffffffffffffffffffffffffffffffffffffff1673ffffffffffffffffffffffffffffffffffffffff168152602001908152602001600020546104fb9190612b30565b600260003373ffffffffffffffffffffffffffffffffffffffff1673ffffffffffffffffffffffffffffffffffffffff1681526020019081526020016000208190555060003373ffffffffffffffffffffffffffffffffffffffff168360405161056490612b95565b60006040518083038185875af1925050503d80600081146105a1576040519150601f19603f3d011682016040523d82523d6000602084013e6105a6565b606091505b50509050806105ea576040517f08c379a00000000000000000000000000000000000000000000000000000000081526004016105e190612bf6565b60405180910390fd5b7feaff4b37086828766ad3268786972c0cd24259d4c87a80f9d3963a3c3d999b0d338460405161061b929190612c16565b60405180910390a1505050565b6000806000806000806001600088815260200190815260200160002090503373ffffffffffffffffffffffffffffffffffffffff168160030160009054906101000a900473ffffffffffffffffffffffffffffffffffffffff1673ffffffffffffffffffffffffffffffffffffffff16146106d8576040517f08c379a00000000000000000000000000000000000000000000000000000000081526004016106cf90612cb1565b60405180910390fd5b806000015481600101548260020160009054906101000a900473ffffffffffffffffffffffffffffffffffffffff168360030160149054906101000a900460ff168460030160179054906101000a900460ff16955095509550955095505091939590929450565b60026020528060005260406000206000915090505481565b600073ffffffffffffffffffffffffffffffffffffffff163373ffffffffffffffffffffffffffffffffffffffff16036107bd576040517fe6c4247b00000000000000000000000000000000000000000000000000000000815260040160405180910390fd5b60006001600083815260200190815260200160002090508060030160009054906101000a900473ffffffffffffffffffffffffffffffffffffffff1673ffffffffffffffffffffffffffffffffffffffff163373ffffffffffffffffffffffffffffffffffffffff161415801561088457508060020160009054906101000a900473ffffffffffffffffffffffffffffffffffffffff1673ffffffffffffffffffffffffffffffffffffffff163373ffffffffffffffffffffffffffffffffffffffff1614155b156108bb576040517f28c3794a00000000000000000000000000000000000000000000000000000000815260040160405180910390fd5b600060058111156108cf576108ce612320565b5b8160030160149054906101000a900460ff1660058111156108f3576108f2612320565b5b1461092a576040517f500a07ce00000000000000000000000000000000000000000000000000000000815260040160405180910390fd5b8060010154600260003373ffffffffffffffffffffffffffffffffffffffff1673ffffffffffffffffffffffffffffffffffffffff168152602001908152602001600020546109799190612b30565b600260003373ffffffffffffffffffffffffffffffffffffffff1673ffffffffffffffffffffffffffffffffffffffff1681526020019081526020016000208190555060028160030160146101000a81548160ff021916908360058111156109e4576109e3612320565b5b021790555060003373ffffffffffffffffffffffffffffffffffffffff168260010154604051610a1390612b95565b60006040518083038185875af1925050503d8060008114610a50576040519150601f19603f3d011682016040523d82523d6000602084013e610a55565b606091505b5050905080610a99576040517f08c379a0000000000000000000000000000000000000000000000000000000008152600401610a9090612d1d565b60405180910390fd5b610ac78260030160009054906101000a900473ffffffffffffffffffffffffffffffffffffffff1684611ac6565b823373ffffffffffffffffffffffffffffffffffffffff167fb6b7616368c32a228050b2a61a08a0959c842c01c03e6fe35c1827b5bbe4b3e78460010154604051610b12919061248b565b60405180910390a3505050565b600073ffffffffffffffffffffffffffffffffffffffff163373ffffffffffffffffffffffffffffffffffffffff1603610b85576040517fe6c4247b00000000000000000000000000000000000000000000000000000000815260040160405180910390fd5b600060016000838152602001908152602001600020905060008160030160159054906101000a900461ffff16905060008161ffff1603610bf1576040517f500a07ce00000000000000000000000000000000000000000000000000000000815260040160405180910390fd5b8364ffffffffff168161ffff1614610c35576040517f6606a46200000000000000000000000000000000000000000000000000000000815260040160405180910390fd5b60058260030160146101000a81548160ff02191690836005811115610c5d57610c5c612320565b5b0217905550610c908260030160009054906101000a900473ffffffffffffffffffffffffffffffffffffffff1684611ac6565b610cbe8260020160009054906101000a900473ffffffffffffffffffffffffffffffffffffffff1684611bca565b81600001548260020160009054906101000a900473ffffffffffffffffffffffffffffffffffffffff1673ffffffffffffffffffffffffffffffffffffffff168360030160009054906101000a900473ffffffffffffffffffffffffffffffffffffffff1673ffffffffffffffffffffffffffffffffffffffff167fa6aacbd0ebec0a48939ed99431e9ed18e7b4c2eeb7fee775303a900d54e0c27960405160405180910390a450505050565b600073ffffffffffffffffffffffffffffffffffffffff163373ffffffffffffffffffffffffffffffffffffffff1603610dd1576040517fe6c4247b00000000000000000000000000000000000000000000000000000000815260040160405180910390fd5b60007f000000000000000000000000000000000000000000000000000000000000000073ffffffffffffffffffffffffffffffffffffffff1663e4fd268d336040518263ffffffff1660e01b8152600401610e2c9190612757565b600060405180830381865afa158015610e49573d6000803e3d6000fd5b505050506040513d6000823e3d601f19601f82011682018060405250810190610e72919061290d565b5050509050600073ffffffffffffffffffffffffffffffffffffffff168173ffffffffffffffffffffffffffffffffffffffff1603610edd576040517f28c3794a00000000000000000000000000000000000000000000000000000000815260040160405180910390fd5b600060016000848152602001908152602001600020905060006005811115610f0857610f07612320565b5b8160030160149054906101000a900460ff166005811115610f2c57610f2b612320565b5b14610f63576040517f500a07ce00000000000000000000000000000000000000000000000000000000815260040160405180910390fd5b60048160030160146101000a81548160ff02191690836005811115610f8b57610f8a612320565b5b0217905550505050565b60016020528060005260406000206000915090508060000154908060010154908060020160009054906101000a900473ffffffffffffffffffffffffffffffffffffffff16908060030160009054906101000a900473ffffffffffffffffffffffffffffffffffffffff16908060030160149054906101000a900460ff16908060030160159054906101000a900461ffff16908060030160179054906101000a900460ff16905087565b6000806000339050600080600190505b600054811161112f5760006001600083815260200190815260200160002090508373ffffffffffffffffffffffffffffffffffffffff168160020160009054906101000a900473ffffffffffffffffffffffffffffffffffffffff1673ffffffffffffffffffffffffffffffffffffffff161480156111035750600060058111156110dd576110dc612320565b5b8160030160149054906101000a900460ff16600581111561110157611100612320565b5b145b1561111b578060010154836111189190612d3d565b92505b50808061112790612d71565b91505061104f565b5080600260008473ffffffffffffffffffffffffffffffffffffffff1673ffffffffffffffffffffffffffffffffffffffff168152602001908152602001600020549350935050509091565b6060600460003373ffffffffffffffffffffffffffffffffffffffff1673ffffffffffffffffffffffffffffffffffffffff16815260200190815260200160002080548060200260200160405190810160405280929190818152602001828054801561120657602002820191906000526020600020905b8154815260200190600101908083116111f2575b5050505050905090565b6060600360003373ffffffffffffffffffffffffffffffffffffffff1673ffffffffffffffffffffffffffffffffffffffff16815260200190815260200160002080548060200260200160405190810160405280929190818152602001828054801561129b57602002820191906000526020600020905b815481526020019060010190808311611287575b5050505050905090565b600073ffffffffffffffffffffffffffffffffffffffff168373ffffffffffffffffffffffffffffffffffffffff160361130b576040517fe6c4247b00000000000000000000000000000000000000000000000000000000815260040160405180910390fd5b600073ffffffffffffffffffffffffffffffffffffffff163373ffffffffffffffffffffffffffffffffffffffff1603611371576040517fe6c4247b00000000000000000000000000000000000000000000000000000000815260040160405180910390fd5b60007f000000000000000000000000000000000000000000000000000000000000000073ffffffffffffffffffffffffffffffffffffffff1663401b2168856040518263ffffffff1660e01b81526004016113cc9190612757565b600060405180830381865afa1580156113e9573d6000803e3d6000fd5b505050506040513d6000823e3d601f19601f82011682018060405250810190611412919061290d565b5050509050600073ffffffffffffffffffffffffffffffffffffffff168173ffffffffffffffffffffffffffffffffffffffff160361147d576040517fe6c4247b00000000000000000000000000000000000000000000000000000000815260040160405180910390fd5b6000807f000000000000000000000000000000000000000000000000000000000000000073ffffffffffffffffffffffffffffffffffffffff16630eeaa2ef886040518263ffffffff1660e01b81526004016114d9919061248b565b600060405180830381865afa1580156114f6573d6000803e3d6000fd5b505050506040513d6000823e3d601f19601f8201168201806040525081019061151f9190612de3565b50509450945050505083811015611562576040517fade1cb4100000000000000000000000000000000000000000000000000000000815260040160405180910390fd5b600084836115709190612ebd565b90508515801561157f57508034105b156115b6576040517f5945ea5600000000000000000000000000000000000000000000000000000000815260040160405180910390fd5b8580156115ce57506002816115cb9190612f2e565b34105b15611605576040517f5945ea5600000000000000000000000000000000000000000000000000000000815260040160405180910390fd5b34600260003373ffffffffffffffffffffffffffffffffffffffff1673ffffffffffffffffffffffffffffffffffffffff168152602001908152602001600020546116509190612d3d565b600260003373ffffffffffffffffffffffffffffffffffffffff1673ffffffffffffffffffffffffffffffffffffffff168152602001908152602001600020819055507f000000000000000000000000000000000000000000000000000000000000000073ffffffffffffffffffffffffffffffffffffffff1663ef6bf69789876040518363ffffffff1660e01b81526004016116ee9291906125af565b600060405180830381600087803b15801561170857600080fd5b505af115801561171c573d6000803e3d6000fd5b50505050600061172f89348a338b611f28565b9050888873ffffffffffffffffffffffffffffffffffffffff163373ffffffffffffffffffffffffffffffffffffffff167f3b167fbfe5b0ddf5dfddf89f984f9674de96b4772ba312033a7f627dbc83cb893485604051611791929190612f5f565b60405180910390a4505050505050505050565b600073ffffffffffffffffffffffffffffffffffffffff163373ffffffffffffffffffffffffffffffffffffffff160361180a576040517fe6c4247b00000000000000000000000000000000000000000000000000000000815260040160405180910390fd5b60006001600083815260200190815260200160002090506001600581111561183557611834612320565b5b8160030160149054906101000a900460ff16600581111561185957611858612320565b5b14611890576040517f500a07ce00000000000000000000000000000000000000000000000000000000815260040160405180910390fd5b60008160030160179054906101000a900460ff1690506002808111156118b9576118b8612320565b5b8160028111156118cc576118cb612320565b5b03611903576040517f500a07ce00000000000000000000000000000000000000000000000000000000815260040160405180910390fd5b60006064601984600101546119189190612ebd565b6119229190612f2e565b90508034101561195e576040517f5945ea5600000000000000000000000000000000000000000000000000000000815260040160405180910390fd5b6000600281111561197257611971612320565b5b82600281111561198557611984612320565b5b036119bc5760018360030160176101000a81548160ff021916908360028111156119b2576119b1612320565b5b02179055506119ea565b60028360030160176101000a81548160ff021916908360028111156119e4576119e3612320565b5b02179055505b34600260008560020160009054906101000a900473ffffffffffffffffffffffffffffffffffffffff1673ffffffffffffffffffffffffffffffffffffffff1673ffffffffffffffffffffffffffffffffffffffff16815260200190815260200160002054611a599190612d3d565b600260008560020160009054906101000a900473ffffffffffffffffffffffffffffffffffffffff1673ffffffffffffffffffffffffffffffffffffffff1673ffffffffffffffffffffffffffffffffffffffff1681526020019081526020016000208190555050505050565b6000600360008473ffffffffffffffffffffffffffffffffffffffff1673ffffffffffffffffffffffffffffffffffffffff168152602001908152602001600020905060005b8180549050811015611bc45782828281548110611b2c57611b2b612f88565b5b906000526020600020015403611bb7578160018380549050611b4e9190612b30565b81548110611b5f57611b5e612f88565b5b9060005260206000200154828281548110611b7d57611b7c612f88565b5b906000526020600020018190555081805480611b9c57611b9b612fb7565b5b60019003818190600052602060002001600090559055611bc4565b8080600101915050611b0c565b50505050565b600073ffffffffffffffffffffffffffffffffffffffff168273ffffffffffffffffffffffffffffffffffffffff1603611c30576040517fe6c4247b00000000000000000000000000000000000000000000000000000000815260040160405180910390fd5b600073ffffffffffffffffffffffffffffffffffffffff163373ffffffffffffffffffffffffffffffffffffffff1603611c96576040517fe6c4247b00000000000000000000000000000000000000000000000000000000815260040160405180910390fd5b600060016000838152602001908152602001600020905060016005811115611cc157611cc0612320565b5b8160030160149054906101000a900460ff166005811115611ce557611ce4612320565b5b03611d1c576040517fccf17ebc00000000000000000000000000000000000000000000000000000000815260040160405180910390fd5b600580811115611d2f57611d2e612320565b5b8160030160149054906101000a900460ff166005811115611d5357611d52612320565b5b14611d8a576040517fc83b005900000000000000000000000000000000000000000000000000000000815260040160405180910390fd5b60018160030160146101000a81548160ff02191690836005811115611db257611db1612320565b5b02179055508060010154600260008360030160009054906101000a900473ffffffffffffffffffffffffffffffffffffffff1673ffffffffffffffffffffffffffffffffffffffff1673ffffffffffffffffffffffffffffffffffffffff16815260200190815260200160002054611e2a9190612b30565b600260008360030160009054906101000a900473ffffffffffffffffffffffffffffffffffffffff1673ffffffffffffffffffffffffffffffffffffffff1673ffffffffffffffffffffffffffffffffffffffff168152602001908152602001600020819055508060010154600260008573ffffffffffffffffffffffffffffffffffffffff1673ffffffffffffffffffffffffffffffffffffffff16815260200190815260200160002054611ee09190612d3d565b600260008573ffffffffffffffffffffffffffffffffffffffff1673ffffffffffffffffffffffffffffffffffffffff16815260200190815260200160002081905550505050565b60008073ffffffffffffffffffffffffffffffffffffffff163373ffffffffffffffffffffffffffffffffffffffff1603611f8f576040517fe6c4247b00000000000000000000000000000000000000000000000000000000815260040160405180910390fd5b6000611f9d858589896121f4565b90506001600054611fae9190612d3d565b600081905550600060016000805481526020019081526020016000209050878160000181905550868160010181905550858160020160006101000a81548173ffffffffffffffffffffffffffffffffffffffff021916908373ffffffffffffffffffffffffffffffffffffffff160217905550848160030160006101000a81548173ffffffffffffffffffffffffffffffffffffffff021916908373ffffffffffffffffffffffffffffffffffffffff16021790555060008160030160146101000a81548160ff0219169083600581111561208c5761208b612320565b5b0217905550818160030160156101000a81548161ffff021916908361ffff16021790555083156120e85760008160030160176101000a81548160ff021916908360028111156120de576120dd612320565b5b0217905550612116565b60028160030160176101000a81548160ff021916908360028111156121105761210f612320565b5b02179055505b600360008673ffffffffffffffffffffffffffffffffffffffff1673ffffffffffffffffffffffffffffffffffffffff1681526020019081526020016000206000549080600181540180825580915050600190039060005260206000200160009091909190915055600460008673ffffffffffffffffffffffffffffffffffffffff1673ffffffffffffffffffffffffffffffffffffffff1681526020019081526020016000206000549080600181540180825580915050600190039060005260206000200160009091909190915055819250505095945050505050565b6000804244868887876040516020016122129695949392919061304f565b6040516020818303038152906040528051906020012060001c905060006103e86123288361224091906130bf565b61224a9190612d3d565b90508092505050949350505050565b6000604051905090565b600080fd5b600080fd5b6000819050919050565b6122808161226d565b811461228b57600080fd5b50565b60008135905061229d81612277565b92915050565b6000602082840312156122b9576122b8612263565b5b60006122c78482850161228e565b91505092915050565b6122d98161226d565b82525050565b600073ffffffffffffffffffffffffffffffffffffffff82169050919050565b600061230a826122df565b9050919050565b61231a816122ff565b82525050565b7f4e487b7100000000000000000000000000000000000000000000000000000000600052602160045260246000fd5b600681106123605761235f612320565b5b50565b60008190506123718261234f565b919050565b600061238182612363565b9050919050565b61239181612376565b82525050565b600381106123a8576123a7612320565b5b50565b60008190506123b982612397565b919050565b60006123c9826123ab565b9050919050565b6123d9816123be565b82525050565b600060a0820190506123f460008301886122d0565b61240160208301876122d0565b61240e6040830186612311565b61241b6060830185612388565b61242860808301846123d0565b9695505050505050565b61243b816122ff565b811461244657600080fd5b50565b60008135905061245881612432565b92915050565b60006020828403121561247457612473612263565b5b600061248284828501612449565b91505092915050565b60006020820190506124a060008301846122d0565b92915050565b600064ffffffffff82169050919050565b6124c0816124a6565b81146124cb57600080fd5b50565b6000813590506124dd816124b7565b92915050565b600080604083850312156124fa576124f9612263565b5b6000612508858286016124ce565b92505060206125198582860161228e565b9150509250929050565b600061ffff82169050919050565b61253a81612523565b82525050565b600060e082019050612555600083018a6122d0565b61256260208301896122d0565b61256f6040830188612311565b61257c6060830187612311565b6125896080830186612388565b61259660a0830185612531565b6125a360c08301846123d0565b98975050505050505050565b60006040820190506125c460008301856122d0565b6125d160208301846122d0565b9392505050565b600081519050919050565b600082825260208201905092915050565b6000819050602082019050919050565b61260d8161226d565b82525050565b600061261f8383612604565b60208301905092915050565b6000602082019050919050565b6000612643826125d8565b61264d81856125e3565b9350612658836125f4565b8060005b838110156126895781516126708882612613565b975061267b8361262b565b92505060018101905061265c565b5085935050505092915050565b600060208201905081810360008301526126b08184612638565b905092915050565b60008115159050919050565b6126cd816126b8565b81146126d857600080fd5b50565b6000813590506126ea816126c4565b92915050565b6000806000806080858703121561270a57612709612263565b5b60006127188782880161228e565b945050602061272987828801612449565b935050604061273a878288016126db565b925050606061274b8782880161228e565b91505092959194509250565b600060208201905061276c6000830184612311565b92915050565b60008151905061278181612432565b92915050565b600080fd5b600080fd5b6000601f19601f8301169050919050565b7f4e487b7100000000000000000000000000000000000000000000000000000000600052604160045260246000fd5b6127da82612791565b810181811067ffffffffffffffff821117156127f9576127f86127a2565b5b80604052505050565b600061280c612259565b905061281882826127d1565b919050565b600067ffffffffffffffff821115612838576128376127a2565b5b61284182612791565b9050602081019050919050565b60005b8381101561286c578082015181840152602081019050612851565b60008484015250505050565b600061288b6128868461281d565b612802565b9050828152602081018484840111156128a7576128a661278c565b5b6128b284828561284e565b509392505050565b600082601f8301126128cf576128ce612787565b5b81516128df848260208601612878565b91505092915050565b600481106128f557600080fd5b50565b600081519050612907816128e8565b92915050565b6000806000806080858703121561292757612926612263565b5b600061293587828801612772565b945050602085015167ffffffffffffffff81111561295657612955612268565b5b612962878288016128ba565b935050604085015167ffffffffffffffff81111561298357612982612268565b5b61298f878288016128ba565b92505060606129a0878288016128f8565b91505092959194509250565b600082825260208201905092915050565b7f4661726d6572206e6f7420726567697374657265640000000000000000000000600082015250565b60006129f36015836129ac565b91506129fe826129bd565b602082019050919050565b60006020820190508181036000830152612a22816129e6565b9050919050565b7f416d6f756e74206d7573742062652067726561746572207468616e207a65726f600082015250565b6000612a5f6020836129ac565b9150612a6a82612a29565b602082019050919050565b60006020820190508181036000830152612a8e81612a52565b9050919050565b7f496e73756666696369656e742066756e647320746f2077697468647261770000600082015250565b6000612acb601e836129ac565b9150612ad682612a95565b602082019050919050565b60006020820190508181036000830152612afa81612abe565b9050919050565b7f4e487b7100000000000000000000000000000000000000000000000000000000600052601160045260246000fd5b6000612b3b8261226d565b9150612b468361226d565b9250828203905081811115612b5e57612b5d612b01565b5b92915050565b600081905092915050565b50565b6000612b7f600083612b64565b9150612b8a82612b6f565b600082019050919050565b6000612ba082612b72565b9150819050919050565b7f5769746864726177616c206661696c6564000000000000000000000000000000600082015250565b6000612be06011836129ac565b9150612beb82612baa565b602082019050919050565b60006020820190508181036000830152612c0f81612bd3565b9050919050565b6000604082019050612c2b6000830185612311565b612c3860208301846122d0565b9392505050565b7f4e6f7420746865206275796572206f662074686973207472616e73616374696f60008201527f6e00000000000000000000000000000000000000000000000000000000000000602082015250565b6000612c9b6021836129ac565b9150612ca682612c3f565b604082019050919050565b60006020820190508181036000830152612cca81612c8e565b9050919050565b7f4661696c656420746f207472616e736665722100000000000000000000000000600082015250565b6000612d076013836129ac565b9150612d1282612cd1565b602082019050919050565b60006020820190508181036000830152612d3681612cfa565b9050919050565b6000612d488261226d565b9150612d538361226d565b9250828201905080821115612d6b57612d6a612b01565b5b92915050565b6000612d7c8261226d565b91507fffffffffffffffffffffffffffffffffffffffffffffffffffffffffffffffff8203612dae57612dad612b01565b5b600182019050919050565b600081519050612dc881612277565b92915050565b600081519050612ddd816126c4565b92915050565b600080600080600080600060e0888a031215612e0257612e01612263565b5b6000612e108a828b01612db9565b975050602088015167ffffffffffffffff811115612e3157612e30612268565b5b612e3d8a828b016128ba565b965050604088015167ffffffffffffffff811115612e5e57612e5d612268565b5b612e6a8a828b016128ba565b9550506060612e7b8a828b01612db9565b9450506080612e8c8a828b01612db9565b93505060a0612e9d8a828b01612772565b92505060c0612eae8a828b01612dce565b91505092959891949750929550565b6000612ec88261226d565b9150612ed38361226d565b9250828202612ee18161226d565b91508282048414831517612ef857612ef7612b01565b5b5092915050565b7f4e487b7100000000000000000000000000000000000000000000000000000000600052601260045260246000fd5b6000612f398261226d565b9150612f448361226d565b925082612f5457612f53612eff565b5b828204905092915050565b6000604082019050612f7460008301856122d0565b612f816020830184612531565b9392505050565b7f4e487b7100000000000000000000000000000000000000000000000000000000600052603260045260246000fd5b7f4e487b7100000000000000000000000000000000000000000000000000000000600052603160045260246000fd5b6000819050919050565b613001612ffc8261226d565b612fe6565b82525050565b60008160601b9050919050565b600061301f82613007565b9050919050565b600061303182613014565b9050919050565b613049613044826122ff565b613026565b82525050565b600061305b8289612ff0565b60208201915061306b8288612ff0565b60208201915061307b8287613038565b60148201915061308b8286613038565b60148201915061309b8285612ff0565b6020820191506130ab8284612ff0565b602082019150819050979650505050505050565b60006130ca8261226d565b91506130d58361226d565b9250826130e5576130e4612eff565b5b82820690509291505056fea26469706673582212206a907a21392de01a05203a67fc9f7f9a1ebb9deadf8eda894510970278710d9464736f6c63430008180033",
  "linkReferences": {},
  "deployedLinkReferences": {}
}